{
  "_format": "hh-sol-artifact-1",
  "contractName": "LendingPosition",
  "sourceName": "contracts/LendingPosition.sol",
  "abi": [
    {
      "inputs": [
        {
          "internalType": "address",
          "name": "_tokenToBorrow",
          "type": "address"
        },
        {
          "internalType": "uint256",
          "name": "_interestRateMode",
          "type": "uint256"
        },
        {
          "internalType": "uint16",
          "name": "_referralCode",
          "type": "uint16"
        },
        {
          "internalType": "uint256",
          "name": "_leveragePercentage",
          "type": "uint256"
        },
        {
          "internalType": "address",
          "name": "_lendingPoolAddressProvider",
          "type": "address"
        },
        {
          "internalType": "address",
          "name": "_weth",
          "type": "address"
        }
      ],
      "stateMutability": "payable",
      "type": "constructor"
    },
    {
      "anonymous": false,
      "inputs": [
        {
          "indexed": true,
          "internalType": "address",
          "name": "previousOwner",
          "type": "address"
        },
        {
          "indexed": true,
          "internalType": "address",
          "name": "newOwner",
          "type": "address"
        }
      ],
      "name": "OwnershipTransferred",
      "type": "event"
    },
    {
      "stateMutability": "payable",
      "type": "fallback"
    },
    {
      "inputs": [],
      "name": "amount",
      "outputs": [
        {
          "internalType": "uint256",
          "name": "",
          "type": "uint256"
        }
      ],
      "stateMutability": "view",
      "type": "function"
    },
    {
      "inputs": [],
      "name": "borrowAmount",
      "outputs": [
        {
          "internalType": "uint256",
          "name": "",
          "type": "uint256"
        }
      ],
      "stateMutability": "view",
      "type": "function"
    },
    {
      "inputs": [],
      "name": "closePositionWithETH",
      "outputs": [],
      "stateMutability": "payable",
      "type": "function"
    },
    {
      "inputs": [],
      "name": "getAdditionalETHToClosePosition",
      "outputs": [
        {
          "internalType": "uint256",
          "name": "",
          "type": "uint256"
        }
      ],
      "stateMutability": "view",
      "type": "function"
    },
    {
      "inputs": [],
      "name": "getCurrentPosition",
      "outputs": [
        {
          "internalType": "uint256",
          "name": "",
          "type": "uint256"
        }
      ],
      "stateMutability": "view",
      "type": "function"
    },
    {
      "inputs": [],
      "name": "getPositionData",
      "outputs": [
        {
          "internalType": "uint256",
          "name": "",
          "type": "uint256"
        },
        {
          "internalType": "uint256",
          "name": "",
          "type": "uint256"
        },
        {
          "internalType": "uint256",
          "name": "",
          "type": "uint256"
        },
        {
          "internalType": "uint256",
          "name": "",
          "type": "uint256"
        },
        {
          "internalType": "uint256",
          "name": "",
          "type": "uint256"
        },
        {
          "internalType": "uint256",
          "name": "",
          "type": "uint256"
        }
      ],
      "stateMutability": "view",
      "type": "function"
    },
    {
      "inputs": [],
      "name": "getTotalDebtETH",
      "outputs": [
        {
          "internalType": "uint256",
          "name": "",
          "type": "uint256"
        }
      ],
      "stateMutability": "view",
      "type": "function"
    },
    {
      "inputs": [],
      "name": "interestRateMode",
      "outputs": [
        {
          "internalType": "uint256",
          "name": "",
          "type": "uint256"
        }
      ],
      "stateMutability": "view",
      "type": "function"
    },
    {
      "inputs": [],
      "name": "isLiquidated",
      "outputs": [
        {
          "internalType": "bool",
          "name": "",
          "type": "bool"
        }
      ],
      "stateMutability": "view",
      "type": "function"
    },
    {
      "inputs": [],
      "name": "isOpened",
      "outputs": [
        {
          "internalType": "bool",
          "name": "",
          "type": "bool"
        }
      ],
      "stateMutability": "view",
      "type": "function"
    },
    {
      "inputs": [],
      "name": "lendingPool",
      "outputs": [
        {
          "internalType": "contract ILendingPool",
          "name": "",
          "type": "address"
        }
      ],
      "stateMutability": "view",
      "type": "function"
    },
    {
      "inputs": [],
      "name": "lendingPoolAddressProvider",
      "outputs": [
        {
          "internalType": "contract ILendingPoolAddressesProvider",
          "name": "",
          "type": "address"
        }
      ],
      "stateMutability": "view",
      "type": "function"
    },
    {
      "inputs": [],
      "name": "leveragePercentage",
      "outputs": [
        {
          "internalType": "uint256",
          "name": "",
          "type": "uint256"
        }
      ],
      "stateMutability": "view",
      "type": "function"
    },
    {
      "inputs": [],
      "name": "liquidation_call",
      "outputs": [],
      "stateMutability": "nonpayable",
      "type": "function"
    },
    {
      "inputs": [],
      "name": "owner",
      "outputs": [
        {
          "internalType": "address",
          "name": "",
          "type": "address"
        }
      ],
      "stateMutability": "view",
      "type": "function"
    },
    {
      "inputs": [],
      "name": "performLeverageLend",
      "outputs": [
        {
          "internalType": "uint256",
          "name": "",
          "type": "uint256"
        }
      ],
      "stateMutability": "nonpayable",
      "type": "function"
    },
    {
      "inputs": [],
      "name": "positionPrice",
      "outputs": [
        {
          "internalType": "uint256",
          "name": "",
          "type": "uint256"
        }
      ],
      "stateMutability": "view",
      "type": "function"
    },
    {
      "inputs": [],
      "name": "priceOracle",
      "outputs": [
        {
          "internalType": "contract IPriceOracle",
          "name": "",
          "type": "address"
        }
      ],
      "stateMutability": "view",
      "type": "function"
    },
    {
      "inputs": [],
      "name": "referralCode",
      "outputs": [
        {
          "internalType": "uint16",
          "name": "",
          "type": "uint16"
        }
      ],
      "stateMutability": "view",
      "type": "function"
    },
    {
      "inputs": [],
      "name": "renounceOwnership",
      "outputs": [],
      "stateMutability": "nonpayable",
      "type": "function"
    },
    {
      "inputs": [],
      "name": "tokenToBorrow",
      "outputs": [
        {
          "internalType": "address",
          "name": "",
          "type": "address"
        }
      ],
      "stateMutability": "view",
      "type": "function"
    },
    {
      "inputs": [
        {
          "internalType": "address",
          "name": "newOwner",
          "type": "address"
        }
      ],
      "name": "transferOwnership",
      "outputs": [],
      "stateMutability": "nonpayable",
      "type": "function"
    },
    {
      "inputs": [],
      "name": "uniswapRouter",
      "outputs": [
        {
          "internalType": "contract IUniswapV2Router02",
          "name": "",
          "type": "address"
        }
      ],
      "stateMutability": "view",
      "type": "function"
    },
    {
      "inputs": [],
      "name": "wethToken",
      "outputs": [
        {
          "internalType": "contract IWETH",
          "name": "",
          "type": "address"
        }
      ],
      "stateMutability": "view",
      "type": "function"
    }
  ],
  "bytecode": "0x608060408190526000805461ffff60a01b19169055620028ff38819003908190833981016040819052620000339162000325565b62000047620000416200027b565b6200027f565b34600155600480546001600160a01b03199081166001600160a01b0389811691909117835560058890556006805461ffff191661ffff89161790556007869055600b8054909216858216179182905560408051630261bf8b60e01b815290519290911692630261bf8b928282019260209290829003018186803b158015620000ce57600080fd5b505afa158015620000e3573d6000803e3d6000fd5b505050506040513d601f19601f82011682018060405250810190620001099190620002fc565b600980546001600160a01b0319166001600160a01b03928316179055600b5460408051631f94a27560e31b81529051919092169163fca513a8916004808301926020929190829003018186803b1580156200016357600080fd5b505afa15801562000178573d6000803e3d6000fd5b505050506040513d601f19601f820116820180604052508101906200019e9190620002fc565b600a80546001600160a01b039283166001600160a01b031991821617909155600d805490911633179081905560408051632816e60f60e01b815290519190921691632816e60f916004808301926020929190829003018186803b1580156200020557600080fd5b505afa1580156200021a573d6000803e3d6000fd5b505050506040513d601f19601f82011682018060405250810190620002409190620002fc565b600c80546001600160a01b039283166001600160a01b03199182161790915560088054939092169216919091179055506200040c9350505050565b3390565b600080546001600160a01b038381166001600160a01b0319831681178455604051919092169283917f8be0079c531659141344cd1fd0a4f28419497f9722a3daafe3b4186f6b6457e09190a35050565b8051620002dc81620003dc565b92915050565b8051620002dc81620003f6565b8051620002dc8162000401565b6000602082840312156200030f57600080fd5b60006200031d8484620002cf565b949350505050565b60008060008060008060c087890312156200033f57600080fd5b60006200034d8989620002cf565b96505060206200036089828a01620002ef565b95505060406200037389828a01620002e2565b94505060606200038689828a01620002ef565b93505060806200039989828a01620002cf565b92505060a0620003ac89828a01620002cf565b9150509295509295509295565b6000620002dc82620003cd565b61ffff1690565b6001600160a01b031690565b90565b620003e781620003b9565b8114620003f357600080fd5b50565b620003e781620003c6565b620003e781620003d9565b6124e3806200041c6000396000f3fe60806040526004361061014b5760003560e01c8063aa8c217c116100b6578063e8f379631161006f578063e8f3796314610304578063f2fde38b1461032b578063f38955f11461034b578063f5681d8f14610360578063fdca48f814610375578063ff3be7961461038a5761014b565b8063aa8c217c14610286578063afa0d7961461029b578063b7dd32aa146102b0578063d5812ae1146102c5578063d7376e3e146102da578063d8b6d252146102e25761014b565b8063633803001161010857806363380300146101ee578063692aa97e14610203578063715018a614610225578063735de9f71461023a5780638da5cb5b1461024f578063a59a9973146102715761014b565b80631f304df01461014d5780632630c12f1461017857806330be307a1461019a578063402b0888146101af578063418f35cc146101c45780634b57b0be146101d9575b005b34801561015957600080fd5b5061016261039f565b60405161016f91906121b9565b60405180910390f35b34801561018457600080fd5b5061018d6103a5565b60405161016f9190612076565b3480156101a657600080fd5b506101626103b4565b3480156101bb57600080fd5b50610162610bfa565b3480156101d057600080fd5b50610162610c11565b3480156101e557600080fd5b5061018d610cb6565b3480156101fa57600080fd5b5061018d610cc5565b34801561020f57600080fd5b50610218610cd4565b60405161016f9190612068565b34801561023157600080fd5b5061014b610ce4565b34801561024657600080fd5b5061018d610d2f565b34801561025b57600080fd5b50610264610d3e565b60405161016f9190611ef4565b34801561027d57600080fd5b5061018d610d4d565b34801561029257600080fd5b50610162610d5c565b3480156102a757600080fd5b5061014b610d62565b3480156102bc57600080fd5b50610162610df2565b3480156102d157600080fd5b50610162610df8565b61014b610dfe565b3480156102ee57600080fd5b506102f761145e565b60405161016f91906121ab565b34801561031057600080fd5b50610319611468565b60405161016f9695949392919061222b565b34801561033757600080fd5b5061014b610346366004611bd3565b611508565b34801561035757600080fd5b50610264611579565b34801561036c57600080fd5b50610162611588565b34801561038157600080fd5b506101626115c9565b34801561039657600080fd5b506102186115cf565b60055481565b600a546001600160a01b031681565b60006103be6115df565b6001600160a01b03166103cf610d3e565b6001600160a01b0316146103fe5760405162461bcd60e51b81526004016103f59061219b565b60405180910390fd5b600054600160a01b900460ff16156104285760405162461bcd60e51b81526004016103f59061216b565b6008546001600160a01b031663d0e30db0606461044647605f61233e565b6104509190612314565b6040518263ffffffff1660e01b81526004016000604051808303818588803b15801561047b57600080fd5b505af115801561048f573d6000803e3d6000fd5b505060085460095460405163095ea7b360e01b81526001600160a01b03928316955063095ea7b394506104cc935091169060001990600401611f4e565b602060405180830381600087803b1580156104e657600080fd5b505af11580156104fa573d6000803e3d6000fd5b505050506040513d601f19601f8201168201806040525081019061051e9190611c44565b50600a546004805460405163b3596f0760e01b81526000936001600160a01b039081169363b3596f07936105559392169101611ef4565b60206040518083038186803b15801561056d57600080fd5b505afa158015610581573d6000803e3d6000fd5b505050506040513d601f19601f820116820180604052508101906105a59190611c62565b6009546008546001549293506001600160a01b039182169263e8eda9df92909116906064906105d590605f61233e565b6105df9190612314565b6006546040516001600160e01b031960e086901b16815261060d939291309161ffff90911690600401611fb3565b600060405180830381600087803b15801561062757600080fd5b505af115801561063b573d6000803e3d6000fd5b505050506000610649611468565b5050509250505081606461065d919061233e565b6007546064600154605f610671919061233e565b61067b9190612314565b61068d90670de0b6b3a764000061233e565b610697919061233e565b6106a19190612314565b60028190556009546004805460055460065460405163a415bcad60e01b81526001600160a01b039586169663a415bcad966106e99695169490939261ffff1691309101612026565b600060405180830381600087803b15801561070357600080fd5b505af1158015610717573d6000803e3d6000fd5b50505050600080610726611468565b505050925092505061075460405180606001604052806033815260200161247b6033913960025483856115e3565b604080518082018252601581527408882924058ae8aa89040c4c2d8c2dcc6ca588aa89605b1b60208201526004805492516370a0823160e01b8152610885936001600160a01b0316916370a08231916107af91309101611ef4565b60206040518083038186803b1580156107c757600080fd5b505afa1580156107db573d6000803e3d6000fd5b505050506040513d601f19601f820116820180604052508101906107ff9190611c62565b6008546040516370a0823160e01b81526001600160a01b03909116906370a082319061082f903090600401611ef4565b60206040518083038186803b15801561084757600080fd5b505afa15801561085b573d6000803e3d6000fd5b505050506040513d601f19601f8201168201806040525081019061087f9190611c62565b476115e3565b60048054600c546040516370a0823160e01b81526001600160a01b039283169363095ea7b3939092169184916370a08231916108c391309101611ef4565b60206040518083038186803b1580156108db57600080fd5b505afa1580156108ef573d6000803e3d6000fd5b505050506040513d601f19601f820116820180604052508101906109139190611c62565b6040518363ffffffff1660e01b8152600401610930929190611f70565b602060405180830381600087803b15801561094a57600080fd5b505af115801561095e573d6000803e3d6000fd5b505050506040513d601f19601f820116820180604052508101906109829190611c44565b50604080516002808252606082018352600092602083019080368337505060045482519293506001600160a01b0316918391506000906109d257634e487b7160e01b600052603260045260246000fd5b6001600160a01b03928316602091820292909201810191909152600c54604080516315ab88c960e31b81529051919093169263ad5c4648926004808301939192829003018186803b158015610a2657600080fd5b505afa158015610a3a573d6000803e3d6000fd5b505050506040513d601f19601f82011682018060405250810190610a5e9190611bf1565b81600181518110610a7f57634e487b7160e01b600052603260045260246000fd5b6001600160a01b039283166020918202929092010152600c54600480546040516370a0823160e01b81529284169363791ac947939116916370a0823191610ac891309101611ef4565b60206040518083038186803b158015610ae057600080fd5b505afa158015610af4573d6000803e3d6000fd5b505050506040513d601f19601f82011682018060405250810190610b189190611c62565b60008430610b2742603c6122e6565b6040518663ffffffff1660e01b8152600401610b479594939291906121c7565b600060405180830381600087803b158015610b6157600080fd5b505af1158015610b75573d6000803e3d6000fd5b5050604080518082018252601581527408882924058ae8aa89040c4c2d8c2dcc6ca588aa89605b1b60208201526004805492516370a0823160e01b8152610bd895509193506001600160a01b03909216916370a08231916107af91309101611ef4565b50505060039190915550506000805460ff60a01b1916600160a01b1790554790565b600080610c05611468565b50929550505050505090565b600080610c1c611468565b50506008546040516370a0823160e01b815294955085946001600160a01b0390911693506370a082319250610c5691503090600401611ef4565b60206040518083038186803b158015610c6e57600080fd5b505afa158015610c82573d6000803e3d6000fd5b505050506040513d601f19601f82011682018060405250810190610ca69190611c62565b610cb091906122e6565b91505090565b6008546001600160a01b031681565b600b546001600160a01b031681565b600054600160a01b900460ff1681565b610cec6115df565b6001600160a01b0316610cfd610d3e565b6001600160a01b031614610d235760405162461bcd60e51b81526004016103f59061219b565b610d2d600061162c565b565b600c546001600160a01b031681565b6000546001600160a01b031690565b6009546001600160a01b031681565b60015481565b6000805460ff60a81b1916600160a81b1790556009546008546004546001600160a01b039283169262a718a9928116911630610d9c610bfa565b60006040518663ffffffff1660e01b8152600401610dbe959493929190611f02565b600060405180830381600087803b158015610dd857600080fd5b505af1158015610dec573d6000803e3d6000fd5b50505050565b60025481565b60035481565b610e066115df565b6001600160a01b0316610e17610d3e565b6001600160a01b031614610e3d5760405162461bcd60e51b81526004016103f59061219b565b600054600160a81b900460ff1615610e675760405162461bcd60e51b81526004016103f59061218b565b600054600160a01b900460ff16610e905760405162461bcd60e51b81526004016103f59061217b565b6000610e9a611468565b50505050915050610edd6040518060400160405280600e81526020016d03932b8bab4b93290313637b1b5960951b815250823447610ed891906122e6565b61167c565b604080518082018252600c8082526b1c995c185e57d85b5bdd5b9d60a21b602080840191909152835180850185529182526b574554482062616c616e636560a01b9082015260085492516370a0823160e01b8152610fad938592916001600160a01b03909116906370a0823190610f58903090600401611ef4565b60206040518083038186803b158015610f7057600080fd5b505afa158015610f84573d6000803e3d6000fd5b505050506040513d601f19601f82011682018060405250810190610fa89190611c62565b6116c8565b600a546004805460405163b3596f0760e01b81526000936001600160a01b039081169363b3596f0793610fe39392169101611ef4565b60206040518083038186803b158015610ffb57600080fd5b505afa15801561100f573d6000803e3d6000fd5b505050506040513d601f19601f820116820180604052508101906110339190611c62565b60408051600280825260608201835292935060009290916020830190803683375050600c54604080516315ab88c960e31b815290519394506001600160a01b039091169263ad5c464892506004808301926020929190829003018186803b15801561109d57600080fd5b505afa1580156110b1573d6000803e3d6000fd5b505050506040513d601f19601f820116820180604052508101906110d59190611bf1565b816000815181106110f657634e487b7160e01b600052603260045260246000fd5b6001600160a01b03928316602091820292909201015260045482519116908290600190811061113557634e487b7160e01b600052603260045260246000fd5b6001600160a01b039283166020918202929092010152600c541663b6f9de95476000843061116442603c6122e6565b6040518663ffffffff1660e01b81526004016111839493929190612084565b6000604051808303818588803b15801561119c57600080fd5b505af11580156111b0573d6000803e3d6000fd5b50506004805460095460405163095ea7b360e01b81526001600160a01b03928316965063095ea7b395506111ec94509116916000199101611f70565b602060405180830381600087803b15801561120657600080fd5b505af115801561121a573d6000803e3d6000fd5b505050506040513d601f19601f8201168201806040525081019061123e9190611c44565b506009546004805460055460405163573ade8160e01b81526000946001600160a01b039081169463573ade819461127f949216926000199291309101611ff1565b602060405180830381600087803b15801561129957600080fd5b505af11580156112ad573d6000803e3d6000fd5b505050506040513d601f19601f820116820180604052508101906112d19190611c62565b90506000806000806000806112e4611468565b9550955095509550955095506112fc86868684611711565b600954600854604051631a4ca37b60e21b81526000926001600160a01b03908116926369328dec9261133a9290911690600019903090600401611f8b565b602060405180830381600087803b15801561135457600080fd5b505af1158015611368573d6000803e3d6000fd5b505050506040513d601f19601f8201168201806040525081019061138c9190611c62565b6004549091506113a4906001600160a01b031661175a565b6113ac611a01565b60405133904780156108fc02916000818181858888f193505050501580156113d8573d6000803e3d6000fd5b50604080518082018252601a81527f616c726561647920737761702063757272656e74444149203a2000000000000060208201526004805492516370a0823160e01b815261143c936001600160a01b0316916370a08231916107af91309101611ef4565b50506000805460ff60a01b191681556002819055600355505050505050505050565b60065461ffff1681565b600954604051632fe4a15f60e21b8152600091829182918291829182916001600160a01b039091169063bf92857c906114a5903090600401611ef4565b60c06040518083038186803b1580156114bd57600080fd5b505afa1580156114d1573d6000803e3d6000fd5b505050506040513d601f19601f820116820180604052508101906114f59190611c80565b949b939a50919850965094509092509050565b6115106115df565b6001600160a01b0316611521610d3e565b6001600160a01b0316146115475760405162461bcd60e51b81526004016103f59061219b565b6001600160a01b03811661156d5760405162461bcd60e51b81526004016103f59061215b565b6115768161162c565b50565b6004546001600160a01b031681565b600061271060075460015461159d919061233e565b6115a890605f61233e565b6115b29190612314565b6115ba610bfa565b6115c49190612373565b905090565b60075481565b600054600160a81b900460ff1681565b3390565b610dec848484846040516024016115fd949392919061212e565b60408051601f198184030181529190526020810180516001600160e01b03166304772b3360e11b179052611aef565b600080546001600160a01b038381166001600160a01b0319831681178455604051919092169283917f8be0079c531659141344cd1fd0a4f28419497f9722a3daafe3b4186f6b6457e09190a35050565b6116c383838360405160240161169493929190612101565b60408051601f198184030181529190526020810180516001600160e01b031663969cdd0360e01b179052611aef565b505050565b610dec848484846040516024016116e294939291906120c0565b60408051601f198184030181529190526020810180516001600160e01b031663a0c4b22560e01b179052611aef565b610dec8484848460405160240161172b9493929190612210565b60408051601f198184030181529190526020810180516001600160e01b0316632e50569f60e11b179052611aef565b6040516370a0823160e01b81526000906001600160a01b038316906370a0823190611789903090600401611ef4565b60206040518083038186803b1580156117a157600080fd5b505afa1580156117b5573d6000803e3d6000fd5b505050506040513d601f19601f820116820180604052508101906117d99190611c62565b905080156119fd57600c5460405163095ea7b360e01b81526001600160a01b038481169263095ea7b39261181592909116908590600401611f70565b602060405180830381600087803b15801561182f57600080fd5b505af1158015611843573d6000803e3d6000fd5b505050506040513d601f19601f820116820180604052508101906118679190611c44565b5060408051600280825260608201835260009260208301908036833701905050905082816000815181106118ab57634e487b7160e01b600052603260045260246000fd5b6001600160a01b03928316602091820292909201810191909152600c54604080516315ab88c960e31b81529051919093169263ad5c4648926004808301939192829003018186803b1580156118ff57600080fd5b505afa158015611913573d6000803e3d6000fd5b505050506040513d601f19601f820116820180604052508101906119379190611bf1565b8160018151811061195857634e487b7160e01b600052603260045260246000fd5b6001600160a01b039283166020918202929092010152600c54166318cbafe5836000843061198742603c6122e6565b6040518663ffffffff1660e01b81526004016119a79594939291906121c7565b600060405180830381600087803b1580156119c157600080fd5b505af11580156119d5573d6000803e3d6000fd5b505050506040513d6000823e601f3d908101601f19168201604052610dec9190810190611c0f565b5050565b6008546040516370a0823160e01b81526000916001600160a01b0316906370a0823190611a32903090600401611ef4565b60206040518083038186803b158015611a4a57600080fd5b505afa158015611a5e573d6000803e3d6000fd5b505050506040513d601f19601f82011682018060405250810190611a829190611c62565b9050801561157657600854604051632e1a7d4d60e01b81526001600160a01b0390911690632e1a7d4d90611aba9084906004016121b9565b600060405180830381600087803b158015611ad457600080fd5b505af1158015611ae8573d6000803e3d6000fd5b5050505050565b80516a636f6e736f6c652e6c6f67602083016000808483855afa5050505050565b6000611b23611b1e846122af565b612285565b90508083825260208201905082856020860282011115611b4257600080fd5b60005b85811015611b6e5781611b588882611bc8565b8452506020928301929190910190600101611b45565b5050509392505050565b8035611b8381612454565b92915050565b8051611b8381612454565b600082601f830112611ba557600080fd5b8151611bb5848260208601611b10565b949350505050565b8051611b8381612468565b8051611b8381612471565b600060208284031215611be557600080fd5b6000611bb58484611b78565b600060208284031215611c0357600080fd5b6000611bb58484611b89565b600060208284031215611c2157600080fd5b815167ffffffffffffffff811115611c3857600080fd5b611bb584828501611b94565b600060208284031215611c5657600080fd5b6000611bb58484611bbd565b600060208284031215611c7457600080fd5b6000611bb58484611bc8565b60008060008060008060c08789031215611c9957600080fd5b6000611ca58989611bc8565b9650506020611cb689828a01611bc8565b9550506040611cc789828a01611bc8565b9450506060611cd889828a01611bc8565b9350506080611ce989828a01611bc8565b92505060a0611cfa89828a01611bc8565b9150509295509295509295565b6000611d138383611d1b565b505060200190565b611d24816123a0565b82525050565b6000611d35826122d9565b611d3f81856122dd565b9350611d4a836122d3565b8060005b83811015611d78578151611d628882611d07565b9750611d6d836122d3565b925050600101611d4e565b509495945050505050565b611d24816123ab565b611d24816123c6565b611d24816123d1565b6000611da9826122d9565b611db381856122dd565b9350611dc38185602086016123dc565b611dcc8161244a565b9093019392505050565b6000611de36026836122dd565b7f4f776e61626c653a206e6577206f776e657220697320746865207a65726f206181526564647265737360d01b602082015260400192915050565b6000611e2b6015836122dd565b7430b63932b0b23c9037b832b7103837b9b4ba34b7b760591b815260200192915050565b6000611e5c600f836122dd565b6e1c1bdcda5d1a5bdb8818db1bdcd959608a1b815260200192915050565b6000611e876013836122dd565b721c1bdcda5d1a5bdb881b1a5c5d5a59185d1959606a1b815260200192915050565b6000611eb66020836122dd565b7f4f776e61626c653a2063616c6c6572206973206e6f7420746865206f776e6572815260200192915050565b611d24816123b0565b611d24816123c3565b60208101611b838284611d1b565b60a08101611f108288611d1b565b611f1d6020830187611d1b565b611f2a6040830186611d1b565b611f376060830185611eeb565b611f446080830184611d83565b9695505050505050565b60408101611f5c8285611d1b565b611f696020830184611d95565b9392505050565b60408101611f7e8285611d1b565b611f696020830184611eeb565b60608101611f998286611d1b565b611fa66020830185611eeb565b611bb56040830184611d1b565b60808101611fc18287611d1b565b611fce6020830186611eeb565b611fdb6040830185611d1b565b611fe86060830184611ee2565b95945050505050565b60808101611fff8287611d1b565b61200c6020830186611eeb565b6120196040830185611eeb565b611fe86060830184611d1b565b60a081016120348288611d1b565b6120416020830187611eeb565b61204e6040830186611eeb565b61205b6060830185611ee2565b611f446080830184611d1b565b60208101611b838284611d83565b60208101611b838284611d8c565b608081016120928287611d95565b81810360208301526120a48186611d2a565b90506120b36040830185611d1b565b611fe86060830184611eeb565b608080825281016120d18187611d9e565b90506120e06020830186611eeb565b81810360408301526120f28185611d9e565b9050611fe86060830184611eeb565b606080825281016121128186611d9e565b90506121216020830185611eeb565b611bb56040830184611eeb565b6080808252810161213f8187611d9e565b905061214e6020830186611eeb565b6120b36040830185611eeb565b60208082528101611b8381611dd6565b60208082528101611b8381611e1e565b60208082528101611b8381611e4f565b60208082528101611b8381611e7a565b60208082528101611b8381611ea9565b60208101611b838284611ee2565b60208101611b838284611eeb565b60a081016121d58288611eeb565b6121e26020830187611d95565b81810360408301526121f48186611d2a565b90506122036060830185611d1b565b611f446080830184611eeb565b6080810161221e8287611eeb565b61214e6020830186611eeb565b60c081016122398289611eeb565b6122466020830188611eeb565b6122536040830187611eeb565b6122606060830186611eeb565b61226d6080830185611eeb565b61227a60a0830184611eeb565b979650505050505050565b60405181810167ffffffffffffffff811182821017156122a7576122a7612434565b604052919050565b600067ffffffffffffffff8211156122c9576122c9612434565b5060209081020190565b60200190565b5190565b90815260200190565b60006122f1826123c3565b91506122fc836123c3565b9250821982111561230f5761230f612408565b500190565b600061231f826123c3565b915061232a836123c3565b9250826123395761233961241e565b500490565b6000612349826123c3565b9150612354836123c3565b925081600019048311821515161561236e5761236e612408565b500290565b600061237e826123c3565b9150612389836123c3565b92508282101561239b5761239b612408565b500390565b6000611b83826123b7565b151590565b61ffff1690565b6001600160a01b031690565b90565b6000611b83826123a0565b6000611b83826123c3565b60005b838110156123f75781810151838201526020016123df565b83811115610dec5750506000910152565b634e487b7160e01b600052601160045260246000fd5b634e487b7160e01b600052601260045260246000fd5b634e487b7160e01b600052604160045260246000fd5b601f01601f191690565b61245d816123a0565b811461157657600080fd5b61245d816123ab565b61245d816123c356fe626f72726f77616d6f756e742844414929202c20626f72726f7761626c6528455448292c20746f74616c446562742845544829a264697066735822122010f1216b5e6a7cb0b2845e0a8175ec026c8f4e097cf611a91b4bfe48c2a04e7664736f6c63430008000033",
  "linkReferences": {},
  "deployedLinkReferences": {}
}