{
  "_format": "hh-sol-artifact-1",
  "contractName": "LendingPosition",
  "sourceName": "contracts/LendingPosition.sol",
  "abi": [
    {
      "inputs": [
        {
          "internalType": "address",
          "name": "_tokenToBorrow",
          "type": "address"
        },
        {
          "internalType": "uint256",
          "name": "_interestRateMode",
          "type": "uint256"
        },
        {
          "internalType": "uint16",
          "name": "_referralCode",
          "type": "uint16"
        },
        {
          "internalType": "uint256",
          "name": "_leveragePercentage",
          "type": "uint256"
        },
        {
          "internalType": "address",
          "name": "_lendingPoolAddressProvider",
          "type": "address"
        },
        {
          "internalType": "address",
          "name": "_weth",
          "type": "address"
        }
      ],
      "stateMutability": "payable",
      "type": "constructor"
    },
    {
      "anonymous": false,
      "inputs": [
        {
          "indexed": true,
          "internalType": "address",
          "name": "previousOwner",
          "type": "address"
        },
        {
          "indexed": true,
          "internalType": "address",
          "name": "newOwner",
          "type": "address"
        }
      ],
      "name": "OwnershipTransferred",
      "type": "event"
    },
    {
      "anonymous": false,
      "inputs": [
        {
          "indexed": true,
          "internalType": "address",
          "name": "positionAddress",
          "type": "address"
        },
        {
          "indexed": false,
          "internalType": "address",
          "name": "owner",
          "type": "address"
        }
      ],
      "name": "closePosition",
      "type": "event"
    },
    {
      "stateMutability": "payable",
      "type": "fallback"
    },
    {
      "inputs": [],
      "name": "amount",
      "outputs": [
        {
          "internalType": "uint256",
          "name": "",
          "type": "uint256"
        }
      ],
      "stateMutability": "view",
      "type": "function"
    },
    {
      "inputs": [],
      "name": "borrowAmount",
      "outputs": [
        {
          "internalType": "uint256",
          "name": "",
          "type": "uint256"
        }
      ],
      "stateMutability": "view",
      "type": "function"
    },
    {
      "inputs": [],
      "name": "closePositionWithETH",
      "outputs": [],
      "stateMutability": "payable",
      "type": "function"
    },
    {
      "inputs": [],
      "name": "getAdditionalETHToClosePosition",
      "outputs": [
        {
          "internalType": "uint256",
          "name": "",
          "type": "uint256"
        }
      ],
      "stateMutability": "view",
      "type": "function"
    },
    {
      "inputs": [],
      "name": "getCurrentPosition",
      "outputs": [
        {
          "internalType": "uint256",
          "name": "",
          "type": "uint256"
        }
      ],
      "stateMutability": "view",
      "type": "function"
    },
    {
      "inputs": [],
      "name": "getPositionData",
      "outputs": [
        {
          "internalType": "uint256",
          "name": "",
          "type": "uint256"
        },
        {
          "internalType": "uint256",
          "name": "",
          "type": "uint256"
        },
        {
          "internalType": "uint256",
          "name": "",
          "type": "uint256"
        },
        {
          "internalType": "uint256",
          "name": "",
          "type": "uint256"
        },
        {
          "internalType": "uint256",
          "name": "",
          "type": "uint256"
        },
        {
          "internalType": "uint256",
          "name": "",
          "type": "uint256"
        }
      ],
      "stateMutability": "view",
      "type": "function"
    },
    {
      "inputs": [],
      "name": "getTotalDebtETH",
      "outputs": [
        {
          "internalType": "uint256",
          "name": "",
          "type": "uint256"
        }
      ],
      "stateMutability": "view",
      "type": "function"
    },
    {
      "inputs": [],
      "name": "interestRateMode",
      "outputs": [
        {
          "internalType": "uint256",
          "name": "",
          "type": "uint256"
        }
      ],
      "stateMutability": "view",
      "type": "function"
    },
    {
      "inputs": [],
      "name": "isLiquidated",
      "outputs": [
        {
          "internalType": "bool",
          "name": "",
          "type": "bool"
        }
      ],
      "stateMutability": "view",
      "type": "function"
    },
    {
      "inputs": [],
      "name": "isOpened",
      "outputs": [
        {
          "internalType": "bool",
          "name": "",
          "type": "bool"
        }
      ],
      "stateMutability": "view",
      "type": "function"
    },
    {
      "inputs": [],
      "name": "lendingPool",
      "outputs": [
        {
          "internalType": "contract ILendingPool",
          "name": "",
          "type": "address"
        }
      ],
      "stateMutability": "view",
      "type": "function"
    },
    {
      "inputs": [],
      "name": "lendingPoolAddressProvider",
      "outputs": [
        {
          "internalType": "contract ILendingPoolAddressesProvider",
          "name": "",
          "type": "address"
        }
      ],
      "stateMutability": "view",
      "type": "function"
    },
    {
      "inputs": [],
      "name": "leveragePercentage",
      "outputs": [
        {
          "internalType": "uint256",
          "name": "",
          "type": "uint256"
        }
      ],
      "stateMutability": "view",
      "type": "function"
    },
    {
      "inputs": [],
      "name": "owner",
      "outputs": [
        {
          "internalType": "address",
          "name": "",
          "type": "address"
        }
      ],
      "stateMutability": "view",
      "type": "function"
    },
    {
      "inputs": [],
      "name": "performLeverageLend",
      "outputs": [
        {
          "internalType": "uint256",
          "name": "",
          "type": "uint256"
        }
      ],
      "stateMutability": "nonpayable",
      "type": "function"
    },
    {
      "inputs": [],
      "name": "positionPrice",
      "outputs": [
        {
          "internalType": "uint256",
          "name": "",
          "type": "uint256"
        }
      ],
      "stateMutability": "view",
      "type": "function"
    },
    {
      "inputs": [],
      "name": "priceOracle",
      "outputs": [
        {
          "internalType": "contract IPriceOracle",
          "name": "",
          "type": "address"
        }
      ],
      "stateMutability": "view",
      "type": "function"
    },
    {
      "inputs": [],
      "name": "referralCode",
      "outputs": [
        {
          "internalType": "uint16",
          "name": "",
          "type": "uint16"
        }
      ],
      "stateMutability": "view",
      "type": "function"
    },
    {
      "inputs": [],
      "name": "renounceOwnership",
      "outputs": [],
      "stateMutability": "nonpayable",
      "type": "function"
    },
    {
      "inputs": [],
      "name": "tokenToBorrow",
      "outputs": [
        {
          "internalType": "address",
          "name": "",
          "type": "address"
        }
      ],
      "stateMutability": "view",
      "type": "function"
    },
    {
      "inputs": [
        {
          "internalType": "address",
          "name": "newOwner",
          "type": "address"
        }
      ],
      "name": "transferOwnership",
      "outputs": [],
      "stateMutability": "nonpayable",
      "type": "function"
    },
    {
      "inputs": [],
      "name": "uniswapRouter",
      "outputs": [
        {
          "internalType": "contract IUniswapV2Router02",
          "name": "",
          "type": "address"
        }
      ],
      "stateMutability": "view",
      "type": "function"
    },
    {
      "inputs": [],
      "name": "wethToken",
      "outputs": [
        {
          "internalType": "contract IWETH",
          "name": "",
          "type": "address"
        }
      ],
      "stateMutability": "view",
      "type": "function"
    }
  ],
  "bytecode": "0x608060408190526000805460ff60a01b191690556200285838819003908190833981016040819052620000329162000324565b62000046620000406200027a565b6200027e565b34600155600480546001600160a01b03199081166001600160a01b0389811691909117835560058890556006805461ffff191661ffff89161790556007869055600b8054909216858216179182905560408051630261bf8b60e01b815290519290911692630261bf8b928282019260209290829003018186803b158015620000cd57600080fd5b505afa158015620000e2573d6000803e3d6000fd5b505050506040513d601f19601f82011682018060405250810190620001089190620002fb565b600980546001600160a01b0319166001600160a01b03928316179055600b5460408051631f94a27560e31b81529051919092169163fca513a8916004808301926020929190829003018186803b1580156200016257600080fd5b505afa15801562000177573d6000803e3d6000fd5b505050506040513d601f19601f820116820180604052508101906200019d9190620002fb565b600a80546001600160a01b039283166001600160a01b031991821617909155600d805490911633179081905560408051632816e60f60e01b815290519190921691632816e60f916004808301926020929190829003018186803b1580156200020457600080fd5b505afa15801562000219573d6000803e3d6000fd5b505050506040513d601f19601f820116820180604052508101906200023f9190620002fb565b600c80546001600160a01b039283166001600160a01b03199182161790915560088054939092169216919091179055506200040b9350505050565b3390565b600080546001600160a01b038381166001600160a01b0319831681178455604051919092169283917f8be0079c531659141344cd1fd0a4f28419497f9722a3daafe3b4186f6b6457e09190a35050565b8051620002db81620003db565b92915050565b8051620002db81620003f5565b8051620002db8162000400565b6000602082840312156200030e57600080fd5b60006200031c8484620002ce565b949350505050565b60008060008060008060c087890312156200033e57600080fd5b60006200034c8989620002ce565b96505060206200035f89828a01620002ee565b95505060406200037289828a01620002e1565b94505060606200038589828a01620002ee565b93505060806200039889828a01620002ce565b92505060a0620003ab89828a01620002ce565b9150509295509295509295565b6000620002db82620003cc565b61ffff1690565b6001600160a01b031690565b90565b620003e681620003b8565b8114620003f257600080fd5b50565b620003e681620003c5565b620003e681620003d8565b61243d806200041b6000396000f3fe6080604052600436106101405760003560e01c8063a59a9973116100b6578063e8f379631161006f578063e8f37963146102e4578063f2fde38b1461030b578063f38955f11461032b578063f5681d8f14610340578063fdca48f814610355578063ff3be7961461036a57610140565b8063a59a997314610266578063aa8c217c1461027b578063b7dd32aa14610290578063d5812ae1146102a5578063d7376e3e146102ba578063d8b6d252146102c257610140565b80634b57b0be116101085780634b57b0be146101ce57806363380300146101e3578063692aa97e146101f8578063715018a61461021a578063735de9f71461022f5780638da5cb5b1461024457610140565b80631f304df0146101425780632630c12f1461016d57806330be307a1461018f578063402b0888146101a4578063418f35cc146101b9575b005b34801561014e57600080fd5b5061015761037f565b6040516101649190612113565b60405180910390f35b34801561017957600080fd5b50610182610385565b6040516101649190611fd0565b34801561019b57600080fd5b50610157610394565b3480156101b057600080fd5b50610157610bda565b3480156101c557600080fd5b50610157610bf1565b3480156101da57600080fd5b50610182610c96565b3480156101ef57600080fd5b50610182610ca5565b34801561020457600080fd5b5061020d610cb4565b6040516101649190611fc2565b34801561022657600080fd5b50610140610cc4565b34801561023b57600080fd5b50610182610d0f565b34801561025057600080fd5b50610259610d1e565b6040516101649190611e90565b34801561027257600080fd5b50610182610d2d565b34801561028757600080fd5b50610157610d3c565b34801561029c57600080fd5b50610157610d42565b3480156102b157600080fd5b50610157610d48565b610140610d4e565b3480156102ce57600080fd5b506102d76113e8565b6040516101649190612105565b3480156102f057600080fd5b506102f96113f2565b60405161016496959493929190612185565b34801561031757600080fd5b50610140610326366004611b6f565b611492565b34801561033757600080fd5b50610259611503565b34801561034c57600080fd5b50610157611512565b34801561036157600080fd5b50610157611553565b34801561037657600080fd5b5061020d611559565b60055481565b600a546001600160a01b031681565b600061039e611575565b6001600160a01b03166103af610d1e565b6001600160a01b0316146103de5760405162461bcd60e51b81526004016103d5906120f5565b60405180910390fd5b600054600160a01b900460ff16156104085760405162461bcd60e51b81526004016103d5906120c5565b6008546001600160a01b031663d0e30db0606461042647605f612298565b610430919061226e565b6040518263ffffffff1660e01b81526004016000604051808303818588803b15801561045b57600080fd5b505af115801561046f573d6000803e3d6000fd5b505060085460095460405163095ea7b360e01b81526001600160a01b03928316955063095ea7b394506104ac935091169060001990600401611e9e565b602060405180830381600087803b1580156104c657600080fd5b505af11580156104da573d6000803e3d6000fd5b505050506040513d601f19601f820116820180604052508101906104fe9190611be0565b50600a546004805460405163b3596f0760e01b81526000936001600160a01b039081169363b3596f07936105359392169101611e90565b60206040518083038186803b15801561054d57600080fd5b505afa158015610561573d6000803e3d6000fd5b505050506040513d601f19601f820116820180604052508101906105859190611bfe565b6009546008546001549293506001600160a01b039182169263e8eda9df92909116906064906105b590605f612298565b6105bf919061226e565b6006546040516001600160e01b031960e086901b1681526105ed939291309161ffff90911690600401611f03565b600060405180830381600087803b15801561060757600080fd5b505af115801561061b573d6000803e3d6000fd5b5050505060006106296113f2565b5050509250505081606461063d9190612298565b6007546064600154605f6106519190612298565b61065b919061226e565b61066d90670de0b6b3a7640000612298565b6106779190612298565b610681919061226e565b60028190556009546004805460055460065460405163a415bcad60e01b81526001600160a01b039586169663a415bcad966106c99695169490939261ffff1691309101611f76565b600060405180830381600087803b1580156106e357600080fd5b505af11580156106f7573d6000803e3d6000fd5b505050506000806107066113f2565b50505092509250506107346040518060600160405280603381526020016123d5603391396002548385611579565b604080518082018252601581527408882924058ae8aa89040c4c2d8c2dcc6ca588aa89605b1b60208201526004805492516370a0823160e01b8152610865936001600160a01b0316916370a082319161078f91309101611e90565b60206040518083038186803b1580156107a757600080fd5b505afa1580156107bb573d6000803e3d6000fd5b505050506040513d601f19601f820116820180604052508101906107df9190611bfe565b6008546040516370a0823160e01b81526001600160a01b03909116906370a082319061080f903090600401611e90565b60206040518083038186803b15801561082757600080fd5b505afa15801561083b573d6000803e3d6000fd5b505050506040513d601f19601f8201168201806040525081019061085f9190611bfe565b47611579565b60048054600c546040516370a0823160e01b81526001600160a01b039283169363095ea7b3939092169184916370a08231916108a391309101611e90565b60206040518083038186803b1580156108bb57600080fd5b505afa1580156108cf573d6000803e3d6000fd5b505050506040513d601f19601f820116820180604052508101906108f39190611bfe565b6040518363ffffffff1660e01b8152600401610910929190611ec0565b602060405180830381600087803b15801561092a57600080fd5b505af115801561093e573d6000803e3d6000fd5b505050506040513d601f19601f820116820180604052508101906109629190611be0565b50604080516002808252606082018352600092602083019080368337505060045482519293506001600160a01b0316918391506000906109b257634e487b7160e01b600052603260045260246000fd5b6001600160a01b03928316602091820292909201810191909152600c54604080516315ab88c960e31b81529051919093169263ad5c4648926004808301939192829003018186803b158015610a0657600080fd5b505afa158015610a1a573d6000803e3d6000fd5b505050506040513d601f19601f82011682018060405250810190610a3e9190611b8d565b81600181518110610a5f57634e487b7160e01b600052603260045260246000fd5b6001600160a01b039283166020918202929092010152600c54600480546040516370a0823160e01b81529284169363791ac947939116916370a0823191610aa891309101611e90565b60206040518083038186803b158015610ac057600080fd5b505afa158015610ad4573d6000803e3d6000fd5b505050506040513d601f19601f82011682018060405250810190610af89190611bfe565b60008430610b0742603c612240565b6040518663ffffffff1660e01b8152600401610b27959493929190612121565b600060405180830381600087803b158015610b4157600080fd5b505af1158015610b55573d6000803e3d6000fd5b5050604080518082018252601581527408882924058ae8aa89040c4c2d8c2dcc6ca588aa89605b1b60208201526004805492516370a0823160e01b8152610bb895509193506001600160a01b03909216916370a082319161078f91309101611e90565b50505060039190915550506000805460ff60a01b1916600160a01b1790554790565b600080610be56113f2565b50929550505050505090565b600080610bfc6113f2565b50506008546040516370a0823160e01b815294955085946001600160a01b0390911693506370a082319250610c3691503090600401611e90565b60206040518083038186803b158015610c4e57600080fd5b505afa158015610c62573d6000803e3d6000fd5b505050506040513d601f19601f82011682018060405250810190610c869190611bfe565b610c909190612240565b91505090565b6008546001600160a01b031681565b600b546001600160a01b031681565b600054600160a01b900460ff1681565b610ccc611575565b6001600160a01b0316610cdd610d1e565b6001600160a01b031614610d035760405162461bcd60e51b81526004016103d5906120f5565b610d0d60006115c8565b565b600c546001600160a01b031681565b6000546001600160a01b031690565b6009546001600160a01b031681565b60015481565b60025481565b60035481565b610d56611575565b6001600160a01b0316610d67610d1e565b6001600160a01b031614610d8d5760405162461bcd60e51b81526004016103d5906120f5565b610d95611559565b15610db25760405162461bcd60e51b81526004016103d5906120e5565b600054600160a01b900460ff16610ddb5760405162461bcd60e51b81526004016103d5906120d5565b6000610de56113f2565b50505050915050610e286040518060400160405280600e81526020016d03932b8bab4b93290313637b1b5960951b815250823447610e239190612240565b611618565b604080518082018252600c8082526b1c995c185e57d85b5bdd5b9d60a21b602080840191909152835180850185529182526b574554482062616c616e636560a01b9082015260085492516370a0823160e01b8152610ef8938592916001600160a01b03909116906370a0823190610ea3903090600401611e90565b60206040518083038186803b158015610ebb57600080fd5b505afa158015610ecf573d6000803e3d6000fd5b505050506040513d601f19601f82011682018060405250810190610ef39190611bfe565b611664565b600a546004805460405163b3596f0760e01b81526000936001600160a01b039081169363b3596f0793610f2e9392169101611e90565b60206040518083038186803b158015610f4657600080fd5b505afa158015610f5a573d6000803e3d6000fd5b505050506040513d601f19601f82011682018060405250810190610f7e9190611bfe565b60408051600280825260608201835292935060009290916020830190803683375050600c54604080516315ab88c960e31b815290519394506001600160a01b039091169263ad5c464892506004808301926020929190829003018186803b158015610fe857600080fd5b505afa158015610ffc573d6000803e3d6000fd5b505050506040513d601f19601f820116820180604052508101906110209190611b8d565b8160008151811061104157634e487b7160e01b600052603260045260246000fd5b6001600160a01b03928316602091820292909201015260045482519116908290600190811061108057634e487b7160e01b600052603260045260246000fd5b6001600160a01b039283166020918202929092010152600c541663b6f9de9547600084306110af42603c612240565b6040518663ffffffff1660e01b81526004016110ce9493929190611fde565b6000604051808303818588803b1580156110e757600080fd5b505af11580156110fb573d6000803e3d6000fd5b50506004805460095460405163095ea7b360e01b81526001600160a01b03928316965063095ea7b3955061113794509116916000199101611ec0565b602060405180830381600087803b15801561115157600080fd5b505af1158015611165573d6000803e3d6000fd5b505050506040513d601f19601f820116820180604052508101906111899190611be0565b506009546004805460055460405163573ade8160e01b81526000946001600160a01b039081169463573ade81946111ca949216926000199291309101611f41565b602060405180830381600087803b1580156111e457600080fd5b505af11580156111f8573d6000803e3d6000fd5b505050506040513d601f19601f8201168201806040525081019061121c9190611bfe565b905060008060008060008061122f6113f2565b955095509550955095509550611247868686846116ad565b600954600854604051631a4ca37b60e21b81526000926001600160a01b03908116926369328dec926112859290911690600019903090600401611edb565b602060405180830381600087803b15801561129f57600080fd5b505af11580156112b3573d6000803e3d6000fd5b505050506040513d601f19601f820116820180604052508101906112d79190611bfe565b6004549091506112ef906001600160a01b03166116f6565b6112f761199d565b60405133904780156108fc02916000818181858888f19350505050158015611323573d6000803e3d6000fd5b50604080518082018252601a81527f616c726561647920737761702063757272656e74444149203a2000000000000060208201526004805492516370a0823160e01b8152611387936001600160a01b0316916370a082319161078f91309101611e90565b6000805460ff60a01b191681556002819055600355307fbf42841c562a1070b3c3b029a8572bc51cb9b845a77514998ca585238d64a1e46113c6610d1e565b6040516113d39190611e90565b60405180910390a25050505050505050505050565b60065461ffff1681565b600954604051632fe4a15f60e21b8152600091829182918291829182916001600160a01b039091169063bf92857c9061142f903090600401611e90565b60c06040518083038186803b15801561144757600080fd5b505afa15801561145b573d6000803e3d6000fd5b505050506040513d601f19601f8201168201806040525081019061147f9190611c1c565b949b939a50919850965094509092509050565b61149a611575565b6001600160a01b03166114ab610d1e565b6001600160a01b0316146114d15760405162461bcd60e51b81526004016103d5906120f5565b6001600160a01b0381166114f75760405162461bcd60e51b81526004016103d5906120b5565b611500816115c8565b50565b6004546001600160a01b031681565b60006127106007546001546115279190612298565b61153290605f612298565b61153c919061226e565b611544610bda565b61154e91906122cd565b905090565b60075481565b60008060025411801561154e575061156f610bda565b15905090565b3390565b6115c2848484846040516024016115939493929190612088565b60408051601f198184030181529190526020810180516001600160e01b03166304772b3360e11b179052611a8b565b50505050565b600080546001600160a01b038381166001600160a01b0319831681178455604051919092169283917f8be0079c531659141344cd1fd0a4f28419497f9722a3daafe3b4186f6b6457e09190a35050565b61165f8383836040516024016116309392919061205b565b60408051601f198184030181529190526020810180516001600160e01b031663969cdd0360e01b179052611a8b565b505050565b6115c28484848460405160240161167e949392919061201a565b60408051601f198184030181529190526020810180516001600160e01b031663a0c4b22560e01b179052611a8b565b6115c2848484846040516024016116c7949392919061216a565b60408051601f198184030181529190526020810180516001600160e01b0316632e50569f60e11b179052611a8b565b6040516370a0823160e01b81526000906001600160a01b038316906370a0823190611725903090600401611e90565b60206040518083038186803b15801561173d57600080fd5b505afa158015611751573d6000803e3d6000fd5b505050506040513d601f19601f820116820180604052508101906117759190611bfe565b9050801561199957600c5460405163095ea7b360e01b81526001600160a01b038481169263095ea7b3926117b192909116908590600401611ec0565b602060405180830381600087803b1580156117cb57600080fd5b505af11580156117df573d6000803e3d6000fd5b505050506040513d601f19601f820116820180604052508101906118039190611be0565b50604080516002808252606082018352600092602083019080368337019050509050828160008151811061184757634e487b7160e01b600052603260045260246000fd5b6001600160a01b03928316602091820292909201810191909152600c54604080516315ab88c960e31b81529051919093169263ad5c4648926004808301939192829003018186803b15801561189b57600080fd5b505afa1580156118af573d6000803e3d6000fd5b505050506040513d601f19601f820116820180604052508101906118d39190611b8d565b816001815181106118f457634e487b7160e01b600052603260045260246000fd5b6001600160a01b039283166020918202929092010152600c54166318cbafe5836000843061192342603c612240565b6040518663ffffffff1660e01b8152600401611943959493929190612121565b600060405180830381600087803b15801561195d57600080fd5b505af1158015611971573d6000803e3d6000fd5b505050506040513d6000823e601f3d908101601f191682016040526115c29190810190611bab565b5050565b6008546040516370a0823160e01b81526000916001600160a01b0316906370a08231906119ce903090600401611e90565b60206040518083038186803b1580156119e657600080fd5b505afa1580156119fa573d6000803e3d6000fd5b505050506040513d601f19601f82011682018060405250810190611a1e9190611bfe565b9050801561150057600854604051632e1a7d4d60e01b81526001600160a01b0390911690632e1a7d4d90611a56908490600401612113565b600060405180830381600087803b158015611a7057600080fd5b505af1158015611a84573d6000803e3d6000fd5b5050505050565b80516a636f6e736f6c652e6c6f67602083016000808483855afa5050505050565b6000611abf611aba84612209565b6121df565b90508083825260208201905082856020860282011115611ade57600080fd5b60005b85811015611b0a5781611af48882611b64565b8452506020928301929190910190600101611ae1565b5050509392505050565b8035611b1f816123ae565b92915050565b8051611b1f816123ae565b600082601f830112611b4157600080fd5b8151611b51848260208601611aac565b949350505050565b8051611b1f816123c2565b8051611b1f816123cb565b600060208284031215611b8157600080fd5b6000611b518484611b14565b600060208284031215611b9f57600080fd5b6000611b518484611b25565b600060208284031215611bbd57600080fd5b815167ffffffffffffffff811115611bd457600080fd5b611b5184828501611b30565b600060208284031215611bf257600080fd5b6000611b518484611b59565b600060208284031215611c1057600080fd5b6000611b518484611b64565b60008060008060008060c08789031215611c3557600080fd5b6000611c418989611b64565b9650506020611c5289828a01611b64565b9550506040611c6389828a01611b64565b9450506060611c7489828a01611b64565b9350506080611c8589828a01611b64565b92505060a0611c9689828a01611b64565b9150509295509295509295565b6000611caf8383611cb7565b505060200190565b611cc0816122fa565b82525050565b6000611cd182612233565b611cdb8185612237565b9350611ce68361222d565b8060005b83811015611d14578151611cfe8882611ca3565b9750611d098361222d565b925050600101611cea565b509495945050505050565b611cc081612305565b611cc081612320565b611cc08161232b565b6000611d4582612233565b611d4f8185612237565b9350611d5f818560208601612336565b611d68816123a4565b9093019392505050565b6000611d7f602683612237565b7f4f776e61626c653a206e6577206f776e657220697320746865207a65726f206181526564647265737360d01b602082015260400192915050565b6000611dc7601583612237565b7430b63932b0b23c9037b832b7103837b9b4ba34b7b760591b815260200192915050565b6000611df8600f83612237565b6e1c1bdcda5d1a5bdb8818db1bdcd959608a1b815260200192915050565b6000611e23601383612237565b721c1bdcda5d1a5bdb881b1a5c5d5a59185d1959606a1b815260200192915050565b6000611e52602083612237565b7f4f776e61626c653a2063616c6c6572206973206e6f7420746865206f776e6572815260200192915050565b611cc08161230a565b611cc08161231d565b60208101611b1f8284611cb7565b60408101611eac8285611cb7565b611eb96020830184611d31565b9392505050565b60408101611ece8285611cb7565b611eb96020830184611e87565b60608101611ee98286611cb7565b611ef66020830185611e87565b611b516040830184611cb7565b60808101611f118287611cb7565b611f1e6020830186611e87565b611f2b6040830185611cb7565b611f386060830184611e7e565b95945050505050565b60808101611f4f8287611cb7565b611f5c6020830186611e87565b611f696040830185611e87565b611f386060830184611cb7565b60a08101611f848288611cb7565b611f916020830187611e87565b611f9e6040830186611e87565b611fab6060830185611e7e565b611fb86080830184611cb7565b9695505050505050565b60208101611b1f8284611d1f565b60208101611b1f8284611d28565b60808101611fec8287611d31565b8181036020830152611ffe8186611cc6565b905061200d6040830185611cb7565b611f386060830184611e87565b6080808252810161202b8187611d3a565b905061203a6020830186611e87565b818103604083015261204c8185611d3a565b9050611f386060830184611e87565b6060808252810161206c8186611d3a565b905061207b6020830185611e87565b611b516040830184611e87565b608080825281016120998187611d3a565b90506120a86020830186611e87565b61200d6040830185611e87565b60208082528101611b1f81611d72565b60208082528101611b1f81611dba565b60208082528101611b1f81611deb565b60208082528101611b1f81611e16565b60208082528101611b1f81611e45565b60208101611b1f8284611e7e565b60208101611b1f8284611e87565b60a0810161212f8288611e87565b61213c6020830187611d31565b818103604083015261214e8186611cc6565b905061215d6060830185611cb7565b611fb86080830184611e87565b608081016121788287611e87565b6120a86020830186611e87565b60c081016121938289611e87565b6121a06020830188611e87565b6121ad6040830187611e87565b6121ba6060830186611e87565b6121c76080830185611e87565b6121d460a0830184611e87565b979650505050505050565b60405181810167ffffffffffffffff811182821017156122015761220161238e565b604052919050565b600067ffffffffffffffff8211156122235761222361238e565b5060209081020190565b60200190565b5190565b90815260200190565b600061224b8261231d565b91506122568361231d565b9250821982111561226957612269612362565b500190565b60006122798261231d565b91506122848361231d565b92508261229357612293612378565b500490565b60006122a38261231d565b91506122ae8361231d565b92508160001904831182151516156122c8576122c8612362565b500290565b60006122d88261231d565b91506122e38361231d565b9250828210156122f5576122f5612362565b500390565b6000611b1f82612311565b151590565b61ffff1690565b6001600160a01b031690565b90565b6000611b1f826122fa565b6000611b1f8261231d565b60005b83811015612351578181015183820152602001612339565b838111156115c25750506000910152565b634e487b7160e01b600052601160045260246000fd5b634e487b7160e01b600052601260045260246000fd5b634e487b7160e01b600052604160045260246000fd5b601f01601f191690565b6123b7816122fa565b811461150057600080fd5b6123b781612305565b6123b78161231d56fe626f72726f77616d6f756e742844414929202c20626f72726f7761626c6528455448292c20746f74616c446562742845544829a2646970667358221220bf6a9f56b0e0d4abf32535b830fc951de0df2be37de919693e2220936b3cf91a64736f6c63430008000033",
  "linkReferences": {},
  "deployedLinkReferences": {}
}