{
  "_format": "hh-sol-artifact-1",
  "contractName": "LendingFactory",
  "sourceName": "contracts/LendingFactory.sol",
  "abi": [
    {
      "inputs": [
        {
          "internalType": "address",
          "name": "_lendingPoolAddressProvider",
          "type": "address"
        },
        {
          "internalType": "address",
          "name": "_dai",
          "type": "address"
        },
        {
          "internalType": "address",
          "name": "_weth",
          "type": "address"
        },
        {
          "internalType": "address",
          "name": "_uniswap",
          "type": "address"
        }
      ],
      "stateMutability": "nonpayable",
      "type": "constructor"
    },
    {
      "anonymous": false,
      "inputs": [
        {
          "indexed": true,
          "internalType": "address",
          "name": "previousOwner",
          "type": "address"
        },
        {
          "indexed": true,
          "internalType": "address",
          "name": "newOwner",
          "type": "address"
        }
      ],
      "name": "OwnershipTransferred",
      "type": "event"
    },
    {
      "anonymous": false,
      "inputs": [
        {
          "indexed": true,
          "internalType": "uint256",
          "name": "positionId",
          "type": "uint256"
        },
        {
          "indexed": false,
          "internalType": "address",
          "name": "positionAddress",
          "type": "address"
        },
        {
          "indexed": false,
          "internalType": "address",
          "name": "owner",
          "type": "address"
        }
      ],
      "name": "openPosition",
      "type": "event"
    },
    {
      "inputs": [],
      "name": "dai_address",
      "outputs": [
        {
          "internalType": "address",
          "name": "",
          "type": "address"
        }
      ],
      "stateMutability": "view",
      "type": "function"
    },
    {
      "inputs": [
        {
          "internalType": "uint256",
          "name": "positionId",
          "type": "uint256"
        }
      ],
      "name": "getAddressFromPositionId",
      "outputs": [
        {
          "internalType": "address",
          "name": "",
          "type": "address"
        }
      ],
      "stateMutability": "view",
      "type": "function"
    },
    {
      "inputs": [
        {
          "internalType": "uint256",
          "name": "positionId",
          "type": "uint256"
        }
      ],
      "name": "getPositionDataById",
      "outputs": [
        {
          "internalType": "uint256",
          "name": "",
          "type": "uint256"
        },
        {
          "internalType": "uint256",
          "name": "",
          "type": "uint256"
        },
        {
          "internalType": "uint256",
          "name": "",
          "type": "uint256"
        },
        {
          "internalType": "uint256",
          "name": "",
          "type": "uint256"
        },
        {
          "internalType": "uint256",
          "name": "",
          "type": "uint256"
        },
        {
          "internalType": "uint256",
          "name": "",
          "type": "uint256"
        }
      ],
      "stateMutability": "view",
      "type": "function"
    },
    {
      "inputs": [
        {
          "internalType": "uint256",
          "name": "positionId",
          "type": "uint256"
        }
      ],
      "name": "getPositionOwner",
      "outputs": [
        {
          "internalType": "address",
          "name": "",
          "type": "address"
        }
      ],
      "stateMutability": "view",
      "type": "function"
    },
    {
      "inputs": [
        {
          "internalType": "address",
          "name": "_user",
          "type": "address"
        }
      ],
      "name": "getUserOpenedPosition",
      "outputs": [
        {
          "internalType": "uint256[]",
          "name": "",
          "type": "uint256[]"
        }
      ],
      "stateMutability": "view",
      "type": "function"
    },
    {
      "inputs": [],
      "name": "lendingPoolAddressProvider",
      "outputs": [
        {
          "internalType": "address",
          "name": "",
          "type": "address"
        }
      ],
      "stateMutability": "view",
      "type": "function"
    },
    {
      "inputs": [
        {
          "internalType": "address",
          "name": "_tokenToBorrow",
          "type": "address"
        },
        {
          "internalType": "uint256",
          "name": "_interestRateMode",
          "type": "uint256"
        },
        {
          "internalType": "uint16",
          "name": "_referralCode",
          "type": "uint16"
        },
        {
          "internalType": "uint256",
          "name": "_leveragePercentage",
          "type": "uint256"
        }
      ],
      "name": "openPositionWithETH",
      "outputs": [],
      "stateMutability": "payable",
      "type": "function"
    },
    {
      "inputs": [],
      "name": "owner",
      "outputs": [
        {
          "internalType": "address",
          "name": "",
          "type": "address"
        }
      ],
      "stateMutability": "view",
      "type": "function"
    },
    {
      "inputs": [],
      "name": "renounceOwnership",
      "outputs": [],
      "stateMutability": "nonpayable",
      "type": "function"
    },
    {
      "inputs": [],
      "name": "totalPosition",
      "outputs": [
        {
          "internalType": "uint256",
          "name": "",
          "type": "uint256"
        }
      ],
      "stateMutability": "view",
      "type": "function"
    },
    {
      "inputs": [
        {
          "internalType": "address",
          "name": "newOwner",
          "type": "address"
        }
      ],
      "name": "transferOwnership",
      "outputs": [],
      "stateMutability": "nonpayable",
      "type": "function"
    },
    {
      "inputs": [],
      "name": "uniswap_address",
      "outputs": [
        {
          "internalType": "address",
          "name": "",
          "type": "address"
        }
      ],
      "stateMutability": "view",
      "type": "function"
    },
    {
      "inputs": [],
      "name": "wethToken",
      "outputs": [
        {
          "internalType": "contract IWETH",
          "name": "",
          "type": "address"
        }
      ],
      "stateMutability": "view",
      "type": "function"
    },
    {
      "inputs": [],
      "name": "weth_address",
      "outputs": [
        {
          "internalType": "address",
          "name": "",
          "type": "address"
        }
      ],
      "stateMutability": "view",
      "type": "function"
    }
  ],
  "bytecode": "0x6080604052600060045560506005553480156200001b57600080fd5b5060405162003bd938038062003bd98339810160408190526200003e9162000222565b620000526200004c6200014c565b62000150565b6200009d6040518060400160405280601681526020017f466163746f7279206372656174696f6e20737461727400000000000000000000815250620001a060201b620008d01760201c565b600980546001600160a01b038087166001600160a01b031992831617909255600680548684169083161790556007805485841690831681179091556008805493851693831693909317909255600a8054909116909117905560408051808201909152601781527f466163746f7279206372656174696f6e2066696e697368000000000000000000602080830191909152620001429190620008d0620001a0821b17901c565b5050505062000359565b3390565b600080546001600160a01b038381166001600160a01b0319831681178455604051919092169283917f8be0079c531659141344cd1fd0a4f28419497f9722a3daafe3b4186f6b6457e09190a35050565b620001eb81604051602401620001b79190620002cc565b60408051601f198184030181529190526020810180516001600160e01b0390811663104c13eb60e21b17909152620001ee16565b50565b80516a636f6e736f6c652e6c6f67602083016000808483855afa5050505050565b80516200021c8162000342565b92915050565b600080600080608085870312156200023957600080fd5b60006200024787876200020f565b94505060206200025a878288016200020f565b93505060406200026d878288016200020f565b925050606062000280878288016200020f565b91505092959194509250565b60006200029982620002e6565b620002a58185620002ea565b9350620002b781856020860162000305565b620002c28162000338565b9093019392505050565b60208082528101620002df81846200028c565b9392505050565b5190565b90815260200190565b60006001600160a01b0382166200021c565b60005b838110156200032257818101518382015260200162000308565b8381111562000332576000848401525b50505050565b601f01601f191690565b6200034d81620002f3565b8114620001eb57600080fd5b61387080620003696000396000f3fe608060405260043610620000f25760003560e01c806363380300116200008b5780638da5cb5b11620000615780638da5cb5b1462000247578063d6200614146200025f578063e3fbd2471462000298578063f2fde38b14620002bd57620000f2565b80636338030014620001f2578063715018a6146200020a57806384e25ce5146200022257620000f2565b80632816e60f11620000cd5780632816e60f14620001825780634905e59f146200019a5780634b57b0be14620001b25780635f9fa24114620001d957620000f2565b80631348a8e314620000f757806317fbe3541462000134578063246126bd146200015b575b600080fd5b3480156200010457600080fd5b506200011c62000116366004620009db565b620002e2565b6040516200012b919062000d48565b60405180910390f35b3480156200014157600080fd5b506200014c62000350565b6040516200012b919062000db4565b3480156200016857600080fd5b506200017362000356565b6040516200012b919062000d12565b3480156200018f57600080fd5b506200017362000365565b348015620001a757600080fd5b506200017362000374565b348015620001bf57600080fd5b50620001ca62000383565b6040516200012b919062000d5b565b620001f0620001ea36600462000a25565b62000392565b005b348015620001ff57600080fd5b50620001736200068f565b3480156200021757600080fd5b50620001f06200069e565b3480156200022f57600080fd5b50620001736200024136600462000a8f565b620006f2565b3480156200025457600080fd5b50620001736200070d565b3480156200026c57600080fd5b50620002846200027e36600462000a8f565b6200071c565b6040516200012b9695949392919062000e3a565b348015620002a557600080fd5b5062000173620002b736600462000a8f565b620007c4565b348015620002ca57600080fd5b50620001f0620002dc366004620009db565b62000853565b6001600160a01b0381166000908152600260209081526040918290208054835181840281018401909452808452606093928301828280156200034457602002820191906000526020600020905b8154815260200190600101908083116200032f575b50505050509050919050565b60045481565b6007546001600160a01b031681565b6008546001600160a01b031681565b6006546001600160a01b031681565b600a546001600160a01b031681565b620003c36040518060400160405280600e81526020016d6265666f7265207265717569726560901b815250620008d0565b600554811115620003f15760405162461bcd60e51b8152600401620003e89062000d90565b60405180910390fd5b620004316040518060400160405280601c81526020017f6265666f7265206372656174696e67206e657720706f736974696f6e00000000815250620008d0565b60003460045486868686600960009054906101000a90046001600160a01b0316600760009054906101000a90046001600160a01b031660405162000475906200098c565b62000487979695949392919062000dc4565b6040518091039082f0905080158015620004a5573d6000803e3d6000fd5b509050600554821115620004cd5760405162461bcd60e51b8152600401620003e89062000d90565b806001600160a01b03166330be307a6040518163ffffffff1660e01b8152600401602060405180830381600087803b1580156200050957600080fd5b505af11580156200051e573d6000803e3d6000fd5b505050506040513d601f19601f8201168201806040525081019062000544919062000ab0565b5060405163f2fde38b60e01b81526001600160a01b0382169063f2fde38b906200057390339060040162000d12565b600060405180830381600087803b1580156200058e57600080fd5b505af1158015620005a3573d6000803e3d6000fd5b505060048054600090815260016020818152604080842080546001600160a01b038a166001600160a01b03199182168117909255338087526002855283872088548154808901835591895295882001949094556003805495860181559095527fc2575a0e9e593c00f959f8c92f12db2869c3395a3b0502d05e2516446f71f85b9093018054909416909217909255915491519193507f8ba97c49cd21462542e1fb094e9ce06444cc9051ff1253b7f63c9b2434ff20979250620006699185919062000d22565b60405180910390a260048054906000620006838362000f16565b91905055505050505050565b6009546001600160a01b031681565b620006a862000917565b6001600160a01b0316620006bb6200070d565b6001600160a01b031614620006e45760405162461bcd60e51b8152600401620003e89062000da2565b620006f060006200091b565b565b6000908152600160205260409020546001600160a01b031690565b6000546001600160a01b031690565b60008181526001602052604080822054815163e8f3796360e01b81529151839283928392839283926001600160a01b03169163e8f379639160048082019260c092909190829003018186803b1580156200077557600080fd5b505afa1580156200078a573d6000803e3d6000fd5b505050506040513d601f19601f82011682018060405250810190620007b0919062000ad1565b949c939b5091995097509550909350915050565b6000818152600160209081526040808320548151638da5cb5b60e01b815291516001600160a01b0390911692638da5cb5b9260048082019391829003018186803b1580156200081257600080fd5b505afa15801562000827573d6000803e3d6000fd5b505050506040513d601f19601f820116820180604052508101906200084d919062000a04565b92915050565b6200085d62000917565b6001600160a01b0316620008706200070d565b6001600160a01b031614620008995760405162461bcd60e51b8152600401620003e89062000da2565b6001600160a01b038116620008c25760405162461bcd60e51b8152600401620003e89062000d7e565b620008cd816200091b565b50565b620008cd81604051602401620008e7919062000d6b565b60408051601f198184030181529190526020810180516001600160e01b031663104c13eb60e21b1790526200096b565b3390565b600080546001600160a01b038381166001600160a01b0319831681178455604051919092169283917f8be0079c531659141344cd1fd0a4f28419497f9722a3daafe3b4186f6b6457e09190a35050565b80516a636f6e736f6c652e6c6f67602083016000808483855afa5050505050565b6128ac8062000f8f83390190565b80356200084d8162000f61565b80516200084d8162000f61565b80356200084d8162000f78565b80356200084d8162000f83565b80516200084d8162000f83565b600060208284031215620009ee57600080fd5b6000620009fc84846200099a565b949350505050565b60006020828403121562000a1757600080fd5b6000620009fc8484620009a7565b6000806000806080858703121562000a3c57600080fd5b600062000a4a87876200099a565b945050602062000a5d87828801620009c1565b935050604062000a7087828801620009b4565b925050606062000a8387828801620009c1565b91505092959194509250565b60006020828403121562000aa257600080fd5b6000620009fc8484620009c1565b60006020828403121562000ac357600080fd5b6000620009fc8484620009ce565b60008060008060008060c0878903121562000aeb57600080fd5b600062000af98989620009ce565b965050602062000b0c89828a01620009ce565b955050604062000b1f89828a01620009ce565b945050606062000b3289828a01620009ce565b935050608062000b4589828a01620009ce565b92505060a062000b5889828a01620009ce565b9150509295509295509295565b600062000b73838362000d07565b505060200190565b62000b868162000eb3565b82525050565b600062000b998262000ea6565b62000ba5818562000eaa565b935062000bb28362000ea0565b8060005b8381101562000be657815162000bcd888262000b65565b975062000bda8362000ea0565b92505060010162000bb6565b509495945050505050565b62000b868162000ed6565b600062000c098262000ea6565b62000c15818562000eaa565b935062000c2781856020860162000ee3565b62000c328162000f57565b9093019392505050565b600062000c4b60268362000eaa565b7f4f776e61626c653a206e6577206f776e657220697320746865207a65726f206181526564647265737360d01b602082015260400192915050565b600062000c95601a8362000eaa565b7f6c74762065786365656420616363657074656420616d6f756e74000000000000815260200192915050565b600062000cd060208362000eaa565b7f4f776e61626c653a2063616c6c6572206973206e6f7420746865206f776e6572815260200192915050565b62000b868162000ec0565b62000b868162000ed3565b602081016200084d828462000b7b565b6040810162000d32828562000b7b565b62000d41602083018462000b7b565b9392505050565b6020808252810162000d41818462000b8c565b602081016200084d828462000bf1565b6020808252810162000d41818462000bfc565b602080825281016200084d8162000c3c565b602080825281016200084d8162000c86565b602080825281016200084d8162000cc1565b602081016200084d828462000d07565b60e0810162000dd4828a62000d07565b62000de3602083018962000b7b565b62000df2604083018862000d07565b62000e01606083018762000cfc565b62000e10608083018662000d07565b62000e1f60a083018562000b7b565b62000e2e60c083018462000b7b565b98975050505050505050565b60c0810162000e4a828962000d07565b62000e59602083018862000d07565b62000e68604083018762000d07565b62000e77606083018662000d07565b62000e86608083018562000d07565b62000e9560a083018462000d07565b979650505050505050565b60200190565b5190565b90815260200190565b60006200084d8262000ec7565b61ffff1690565b6001600160a01b031690565b90565b60006200084d8262000eb3565b60005b8381101562000f0057818101518382015260200162000ee6565b8381111562000f10576000848401525b50505050565b600062000f238262000ed3565b915060001982141562000f3a5762000f3a62000f41565b5060010190565b634e487b7160e01b600052601160045260246000fd5b601f01601f191690565b62000f6c8162000eb3565b8114620008cd57600080fd5b62000f6c8162000ec0565b62000f6c8162000ed356fe608060408190526000805460ff60a01b19169055620028ac3881900390819083398101604081905262000032916200032e565b620000466200004062000284565b62000288565b346002556001879055600580546001600160a01b03199081166001600160a01b038981169190911790925560068790556007805461ffff191661ffff88161790556008859055600c8054909116848316179081905560408051630261bf8b60e01b815290519190921691630261bf8b916004808301926020929190829003018186803b158015620000d657600080fd5b505afa158015620000eb573d6000803e3d6000fd5b505050506040513d601f19601f8201168201806040525081019062000111919062000305565b600a80546001600160a01b0319166001600160a01b03928316179055600c5460408051631f94a27560e31b81529051919092169163fca513a8916004808301926020929190829003018186803b1580156200016b57600080fd5b505afa15801562000180573d6000803e3d6000fd5b505050506040513d601f19601f82011682018060405250810190620001a6919062000305565b600b80546001600160a01b039283166001600160a01b031991821617909155600e805490911633179081905560408051632816e60f60e01b815290519190921691632816e60f916004808301926020929190829003018186803b1580156200020d57600080fd5b505afa15801562000222573d6000803e3d6000fd5b505050506040513d601f19601f8201168201806040525081019062000248919062000305565b600d80546001600160a01b039283166001600160a01b03199182161790915560098054939092169216919091179055506200042c945050505050565b3390565b600080546001600160a01b038381166001600160a01b0319831681178455604051919092169283917f8be0079c531659141344cd1fd0a4f28419497f9722a3daafe3b4186f6b6457e09190a35050565b8051620002e581620003fc565b92915050565b8051620002e58162000416565b8051620002e58162000421565b6000602082840312156200031857600080fd5b6000620003268484620002d8565b949350505050565b600080600080600080600060e0888a0312156200034a57600080fd5b6000620003588a8a620002f8565b97505060206200036b8a828b01620002d8565b96505060406200037e8a828b01620002f8565b9550506060620003918a828b01620002eb565b9450506080620003a48a828b01620002f8565b93505060a0620003b78a828b01620002d8565b92505060c0620003ca8a828b01620002d8565b91505092959891949750929550565b6000620002e582620003ed565b61ffff1690565b6001600160a01b031690565b90565b6200040781620003d9565b81146200041357600080fd5b50565b6200040781620003e6565b6200040781620003f9565b612470806200043c6000396000f3fe60806040526004361061014b5760003560e01c8063aa8c217c116100b6578063f10684541161006f578063f106845414610316578063f2fde38b1461032b578063f38955f11461034b578063f5681d8f14610360578063fdca48f814610375578063ff3be7961461038a5761014b565b8063aa8c217c14610286578063b7dd32aa1461029b578063d5812ae1146102b0578063d7376e3e146102c5578063d8b6d252146102cd578063e8f37963146102ef5761014b565b8063633803001161010857806363380300146101ee578063692aa97e14610203578063715018a614610225578063735de9f71461023a5780638da5cb5b1461024f578063a59a9973146102715761014b565b80631f304df01461014d5780632630c12f1461017857806330be307a1461019a578063402b0888146101af578063418f35cc146101c45780634b57b0be146101d9575b005b34801561015957600080fd5b5061016261039f565b60405161016f9190612146565b60405180910390f35b34801561018457600080fd5b5061018d6103a5565b60405161016f9190612003565b3480156101a657600080fd5b506101626103b4565b3480156101bb57600080fd5b50610162610c01565b3480156101d057600080fd5b50610162610c18565b3480156101e557600080fd5b5061018d610cbd565b3480156101fa57600080fd5b5061018d610ccc565b34801561020f57600080fd5b50610218610cdb565b60405161016f9190611ff5565b34801561023157600080fd5b5061014b610ceb565b34801561024657600080fd5b5061018d610d36565b34801561025b57600080fd5b50610264610d45565b60405161016f9190611ec3565b34801561027d57600080fd5b5061018d610d54565b34801561029257600080fd5b50610162610d63565b3480156102a757600080fd5b50610162610d69565b3480156102bc57600080fd5b50610162610d6f565b61014b610d75565b3480156102d957600080fd5b506102e2611415565b60405161016f9190612138565b3480156102fb57600080fd5b5061030461141f565b60405161016f969594939291906121b8565b34801561032257600080fd5b506101626114bf565b34801561033757600080fd5b5061014b610346366004611ba2565b6114c5565b34801561035757600080fd5b50610264611536565b34801561036c57600080fd5b50610162611545565b34801561038157600080fd5b50610162611586565b34801561039657600080fd5b5061021861158c565b60065481565b600b546001600160a01b031681565b60006103be6115a8565b6001600160a01b03166103cf610d45565b6001600160a01b0316146103fe5760405162461bcd60e51b81526004016103f590612128565b60405180910390fd5b600054600160a01b900460ff16156104285760405162461bcd60e51b81526004016103f5906120f8565b6009546001600160a01b031663d0e30db0606461044647605f6122cb565b61045091906122a1565b6040518263ffffffff1660e01b81526004016000604051808303818588803b15801561047b57600080fd5b505af115801561048f573d6000803e3d6000fd5b5050600954600a5460405163095ea7b360e01b81526001600160a01b03928316955063095ea7b394506104cc935091169060001990600401611ed1565b602060405180830381600087803b1580156104e657600080fd5b505af11580156104fa573d6000803e3d6000fd5b505050506040513d601f19601f8201168201806040525081019061051e9190611c13565b50600b5460055460405163b3596f0760e01b81526000926001600160a01b039081169263b3596f07926105579290911690600401611ec3565b60206040518083038186803b15801561056f57600080fd5b505afa158015610583573d6000803e3d6000fd5b505050506040513d601f19601f820116820180604052508101906105a79190611c31565b600a546009546002549293506001600160a01b039182169263e8eda9df92909116906064906105d790605f6122cb565b6105e191906122a1565b6007546040516001600160e01b031960e086901b16815261060f939291309161ffff90911690600401611f36565b600060405180830381600087803b15801561062957600080fd5b505af115801561063d573d6000803e3d6000fd5b50505050600061064b61141f565b5050509250505081606461065f91906122cb565b6008546064600254605f61067391906122cb565b61067d91906122a1565b61068f90670de0b6b3a76400006122cb565b61069991906122cb565b6106a391906122a1565b6003819055600a5460055460065460075460405163a415bcad60e01b81526001600160a01b039485169563a415bcad956106ee9516939092909161ffff909116903090600401611fa9565b600060405180830381600087803b15801561070857600080fd5b505af115801561071c573d6000803e3d6000fd5b5050505060008061072b61141f565b50505092509250506107596040518060600160405280603381526020016124086033913960035483856115ac565b604080518082018252601581527408882924058ae8aa89040c4c2d8c2dcc6ca588aa89605b1b602082015260055491516370a0823160e01b815261088b926001600160a01b0316906370a08231906107b5903090600401611ec3565b60206040518083038186803b1580156107cd57600080fd5b505afa1580156107e1573d6000803e3d6000fd5b505050506040513d601f19601f820116820180604052508101906108059190611c31565b6009546040516370a0823160e01b81526001600160a01b03909116906370a0823190610835903090600401611ec3565b60206040518083038186803b15801561084d57600080fd5b505afa158015610861573d6000803e3d6000fd5b505050506040513d601f19601f820116820180604052508101906108859190611c31565b476115ac565b600554600d546040516370a0823160e01b81526001600160a01b039283169263095ea7b392169083906370a08231906108c8903090600401611ec3565b60206040518083038186803b1580156108e057600080fd5b505afa1580156108f4573d6000803e3d6000fd5b505050506040513d601f19601f820116820180604052508101906109189190611c31565b6040518363ffffffff1660e01b8152600401610935929190611ef3565b602060405180830381600087803b15801561094f57600080fd5b505af1158015610963573d6000803e3d6000fd5b505050506040513d601f19601f820116820180604052508101906109879190611c13565b50604080516002808252606082018352600092602083019080368337505060055482519293506001600160a01b0316918391506000906109d757634e487b7160e01b600052603260045260246000fd5b6001600160a01b03928316602091820292909201810191909152600d54604080516315ab88c960e31b81529051919093169263ad5c4648926004808301939192829003018186803b158015610a2b57600080fd5b505afa158015610a3f573d6000803e3d6000fd5b505050506040513d601f19601f82011682018060405250810190610a639190611bc0565b81600181518110610a8457634e487b7160e01b600052603260045260246000fd5b6001600160a01b039283166020918202929092010152600d546005546040516370a0823160e01b81529183169263791ac947929116906370a0823190610ace903090600401611ec3565b60206040518083038186803b158015610ae657600080fd5b505afa158015610afa573d6000803e3d6000fd5b505050506040513d601f19601f82011682018060405250810190610b1e9190611c31565b60008430610b2d42603c612273565b6040518663ffffffff1660e01b8152600401610b4d959493929190612154565b600060405180830381600087803b158015610b6757600080fd5b505af1158015610b7b573d6000803e3d6000fd5b5050604080518082018252601581527408882924058ae8aa89040c4c2d8c2dcc6ca588aa89605b1b602082015260055491516370a0823160e01b8152610bdf94509092506001600160a01b03909116906370a08231906107b5903090600401611ec3565b50505060049190915550506000805460ff60a01b1916600160a01b1790554790565b600080610c0c61141f565b50929550505050505090565b600080610c2361141f565b50506009546040516370a0823160e01b815294955085946001600160a01b0390911693506370a082319250610c5d91503090600401611ec3565b60206040518083038186803b158015610c7557600080fd5b505afa158015610c89573d6000803e3d6000fd5b505050506040513d601f19601f82011682018060405250810190610cad9190611c31565b610cb79190612273565b91505090565b6009546001600160a01b031681565b600c546001600160a01b031681565b600054600160a01b900460ff1681565b610cf36115a8565b6001600160a01b0316610d04610d45565b6001600160a01b031614610d2a5760405162461bcd60e51b81526004016103f590612128565b610d3460006115fb565b565b600d546001600160a01b031681565b6000546001600160a01b031690565b600a546001600160a01b031681565b60025481565b60035481565b60045481565b610d7d6115a8565b6001600160a01b0316610d8e610d45565b6001600160a01b031614610db45760405162461bcd60e51b81526004016103f590612128565b610dbc61158c565b15610dd95760405162461bcd60e51b81526004016103f590612118565b600054600160a01b900460ff16610e025760405162461bcd60e51b81526004016103f590612108565b6000610e0c61141f565b50505050915050610e4f6040518060400160405280600e81526020016d03932b8bab4b93290313637b1b5960951b815250823447610e4a9190612273565b61164b565b604080518082018252600c8082526b1c995c185e57d85b5bdd5b9d60a21b602080840191909152835180850185529182526b574554482062616c616e636560a01b9082015260095492516370a0823160e01b8152610f1f938592916001600160a01b03909116906370a0823190610eca903090600401611ec3565b60206040518083038186803b158015610ee257600080fd5b505afa158015610ef6573d6000803e3d6000fd5b505050506040513d601f19601f82011682018060405250810190610f1a9190611c31565b611697565b600b5460055460405163b3596f0760e01b81526000926001600160a01b039081169263b3596f0792610f579290911690600401611ec3565b60206040518083038186803b158015610f6f57600080fd5b505afa158015610f83573d6000803e3d6000fd5b505050506040513d601f19601f82011682018060405250810190610fa79190611c31565b60408051600280825260608201835292935060009290916020830190803683375050600d54604080516315ab88c960e31b815290519394506001600160a01b039091169263ad5c464892506004808301926020929190829003018186803b15801561101157600080fd5b505afa158015611025573d6000803e3d6000fd5b505050506040513d601f19601f820116820180604052508101906110499190611bc0565b8160008151811061106a57634e487b7160e01b600052603260045260246000fd5b6001600160a01b0392831660209182029290920101526005548251911690829060019081106110a957634e487b7160e01b600052603260045260246000fd5b6001600160a01b039283166020918202929092010152600d541663b6f9de9547600084306110d842603c612273565b6040518663ffffffff1660e01b81526004016110f79493929190612011565b6000604051808303818588803b15801561111057600080fd5b505af1158015611124573d6000803e3d6000fd5b5050600554600a5460405163095ea7b360e01b81526001600160a01b03928316955063095ea7b39450611161935091169060001990600401611ef3565b602060405180830381600087803b15801561117b57600080fd5b505af115801561118f573d6000803e3d6000fd5b505050506040513d601f19601f820116820180604052508101906111b39190611c13565b50600a5460055460065460405163573ade8160e01b81526000936001600160a01b039081169363573ade81936111f6939190921691600019913090600401611f74565b602060405180830381600087803b15801561121057600080fd5b505af1158015611224573d6000803e3d6000fd5b505050506040513d601f19601f820116820180604052508101906112489190611c31565b905060008060008060008061125b61141f565b955095509550955095509550611273868686846116e0565b600a54600954604051631a4ca37b60e21b81526000926001600160a01b03908116926369328dec926112b19290911690600019903090600401611f0e565b602060405180830381600087803b1580156112cb57600080fd5b505af11580156112df573d6000803e3d6000fd5b505050506040513d601f19601f820116820180604052508101906113039190611c31565b60055490915061131b906001600160a01b0316611729565b6113236119d0565b60405133904780156108fc02916000818181858888f1935050505015801561134f573d6000803e3d6000fd5b50604080518082018252601a81527f616c726561647920737761702063757272656e74444149203a20000000000000602082015260055491516370a0823160e01b81526113b4926001600160a01b0316906370a08231906107b5903090600401611ec3565b6000805460ff60a01b191681556003819055600455307fbf42841c562a1070b3c3b029a8572bc51cb9b845a77514998ca585238d64a1e46113f3610d45565b6040516114009190611ec3565b60405180910390a25050505050505050505050565b60075461ffff1681565b600a54604051632fe4a15f60e21b8152600091829182918291829182916001600160a01b039091169063bf92857c9061145c903090600401611ec3565b60c06040518083038186803b15801561147457600080fd5b505afa158015611488573d6000803e3d6000fd5b505050506040513d601f19601f820116820180604052508101906114ac9190611c4f565b949b939a50919850965094509092509050565b60015481565b6114cd6115a8565b6001600160a01b03166114de610d45565b6001600160a01b0316146115045760405162461bcd60e51b81526004016103f590612128565b6001600160a01b03811661152a5760405162461bcd60e51b81526004016103f5906120e8565b611533816115fb565b50565b6005546001600160a01b031681565b600061271060085460025461155a91906122cb565b61156590605f6122cb565b61156f91906122a1565b611577610c01565b6115819190612300565b905090565b60085481565b60008060035411801561158157506115a2610c01565b15905090565b3390565b6115f5848484846040516024016115c694939291906120bb565b60408051601f198184030181529190526020810180516001600160e01b03166304772b3360e11b179052611abe565b50505050565b600080546001600160a01b038381166001600160a01b0319831681178455604051919092169283917f8be0079c531659141344cd1fd0a4f28419497f9722a3daafe3b4186f6b6457e09190a35050565b6116928383836040516024016116639392919061208e565b60408051601f198184030181529190526020810180516001600160e01b031663969cdd0360e01b179052611abe565b505050565b6115f5848484846040516024016116b1949392919061204d565b60408051601f198184030181529190526020810180516001600160e01b031663a0c4b22560e01b179052611abe565b6115f5848484846040516024016116fa949392919061219d565b60408051601f198184030181529190526020810180516001600160e01b0316632e50569f60e11b179052611abe565b6040516370a0823160e01b81526000906001600160a01b038316906370a0823190611758903090600401611ec3565b60206040518083038186803b15801561177057600080fd5b505afa158015611784573d6000803e3d6000fd5b505050506040513d601f19601f820116820180604052508101906117a89190611c31565b905080156119cc57600d5460405163095ea7b360e01b81526001600160a01b038481169263095ea7b3926117e492909116908590600401611ef3565b602060405180830381600087803b1580156117fe57600080fd5b505af1158015611812573d6000803e3d6000fd5b505050506040513d601f19601f820116820180604052508101906118369190611c13565b50604080516002808252606082018352600092602083019080368337019050509050828160008151811061187a57634e487b7160e01b600052603260045260246000fd5b6001600160a01b03928316602091820292909201810191909152600d54604080516315ab88c960e31b81529051919093169263ad5c4648926004808301939192829003018186803b1580156118ce57600080fd5b505afa1580156118e2573d6000803e3d6000fd5b505050506040513d601f19601f820116820180604052508101906119069190611bc0565b8160018151811061192757634e487b7160e01b600052603260045260246000fd5b6001600160a01b039283166020918202929092010152600d54166318cbafe5836000843061195642603c612273565b6040518663ffffffff1660e01b8152600401611976959493929190612154565b600060405180830381600087803b15801561199057600080fd5b505af11580156119a4573d6000803e3d6000fd5b505050506040513d6000823e601f3d908101601f191682016040526115f59190810190611bde565b5050565b6009546040516370a0823160e01b81526000916001600160a01b0316906370a0823190611a01903090600401611ec3565b60206040518083038186803b158015611a1957600080fd5b505afa158015611a2d573d6000803e3d6000fd5b505050506040513d601f19601f82011682018060405250810190611a519190611c31565b9050801561153357600954604051632e1a7d4d60e01b81526001600160a01b0390911690632e1a7d4d90611a89908490600401612146565b600060405180830381600087803b158015611aa357600080fd5b505af1158015611ab7573d6000803e3d6000fd5b5050505050565b80516a636f6e736f6c652e6c6f67602083016000808483855afa5050505050565b6000611af2611aed8461223c565b612212565b90508083825260208201905082856020860282011115611b1157600080fd5b60005b85811015611b3d5781611b278882611b97565b8452506020928301929190910190600101611b14565b5050509392505050565b8035611b52816123e1565b92915050565b8051611b52816123e1565b600082601f830112611b7457600080fd5b8151611b84848260208601611adf565b949350505050565b8051611b52816123f5565b8051611b52816123fe565b600060208284031215611bb457600080fd5b6000611b848484611b47565b600060208284031215611bd257600080fd5b6000611b848484611b58565b600060208284031215611bf057600080fd5b815167ffffffffffffffff811115611c0757600080fd5b611b8484828501611b63565b600060208284031215611c2557600080fd5b6000611b848484611b8c565b600060208284031215611c4357600080fd5b6000611b848484611b97565b60008060008060008060c08789031215611c6857600080fd5b6000611c748989611b97565b9650506020611c8589828a01611b97565b9550506040611c9689828a01611b97565b9450506060611ca789828a01611b97565b9350506080611cb889828a01611b97565b92505060a0611cc989828a01611b97565b9150509295509295509295565b6000611ce28383611cea565b505060200190565b611cf38161232d565b82525050565b6000611d0482612266565b611d0e818561226a565b9350611d1983612260565b8060005b83811015611d47578151611d318882611cd6565b9750611d3c83612260565b925050600101611d1d565b509495945050505050565b611cf381612338565b611cf381612353565b611cf38161235e565b6000611d7882612266565b611d82818561226a565b9350611d92818560208601612369565b611d9b816123d7565b9093019392505050565b6000611db260268361226a565b7f4f776e61626c653a206e6577206f776e657220697320746865207a65726f206181526564647265737360d01b602082015260400192915050565b6000611dfa60158361226a565b7430b63932b0b23c9037b832b7103837b9b4ba34b7b760591b815260200192915050565b6000611e2b600f8361226a565b6e1c1bdcda5d1a5bdb8818db1bdcd959608a1b815260200192915050565b6000611e5660138361226a565b721c1bdcda5d1a5bdb881b1a5c5d5a59185d1959606a1b815260200192915050565b6000611e8560208361226a565b7f4f776e61626c653a2063616c6c6572206973206e6f7420746865206f776e6572815260200192915050565b611cf38161233d565b611cf381612350565b60208101611b528284611cea565b60408101611edf8285611cea565b611eec6020830184611d64565b9392505050565b60408101611f018285611cea565b611eec6020830184611eba565b60608101611f1c8286611cea565b611f296020830185611eba565b611b846040830184611cea565b60808101611f448287611cea565b611f516020830186611eba565b611f5e6040830185611cea565b611f6b6060830184611eb1565b95945050505050565b60808101611f828287611cea565b611f8f6020830186611eba565b611f9c6040830185611eba565b611f6b6060830184611cea565b60a08101611fb78288611cea565b611fc46020830187611eba565b611fd16040830186611eba565b611fde6060830185611eb1565b611feb6080830184611cea565b9695505050505050565b60208101611b528284611d52565b60208101611b528284611d5b565b6080810161201f8287611d64565b81810360208301526120318186611cf9565b90506120406040830185611cea565b611f6b6060830184611eba565b6080808252810161205e8187611d6d565b905061206d6020830186611eba565b818103604083015261207f8185611d6d565b9050611f6b6060830184611eba565b6060808252810161209f8186611d6d565b90506120ae6020830185611eba565b611b846040830184611eba565b608080825281016120cc8187611d6d565b90506120db6020830186611eba565b6120406040830185611eba565b60208082528101611b5281611da5565b60208082528101611b5281611ded565b60208082528101611b5281611e1e565b60208082528101611b5281611e49565b60208082528101611b5281611e78565b60208101611b528284611eb1565b60208101611b528284611eba565b60a081016121628288611eba565b61216f6020830187611d64565b81810360408301526121818186611cf9565b90506121906060830185611cea565b611feb6080830184611eba565b608081016121ab8287611eba565b6120db6020830186611eba565b60c081016121c68289611eba565b6121d36020830188611eba565b6121e06040830187611eba565b6121ed6060830186611eba565b6121fa6080830185611eba565b61220760a0830184611eba565b979650505050505050565b60405181810167ffffffffffffffff81118282101715612234576122346123c1565b604052919050565b600067ffffffffffffffff821115612256576122566123c1565b5060209081020190565b60200190565b5190565b90815260200190565b600061227e82612350565b915061228983612350565b9250821982111561229c5761229c612395565b500190565b60006122ac82612350565b91506122b783612350565b9250826122c6576122c66123ab565b500490565b60006122d682612350565b91506122e183612350565b92508160001904831182151516156122fb576122fb612395565b500290565b600061230b82612350565b915061231683612350565b92508282101561232857612328612395565b500390565b6000611b5282612344565b151590565b61ffff1690565b6001600160a01b031690565b90565b6000611b528261232d565b6000611b5282612350565b60005b8381101561238457818101518382015260200161236c565b838111156115f55750506000910152565b634e487b7160e01b600052601160045260246000fd5b634e487b7160e01b600052601260045260246000fd5b634e487b7160e01b600052604160045260246000fd5b601f01601f191690565b6123ea8161232d565b811461153357600080fd5b6123ea81612338565b6123ea8161235056fe626f72726f77616d6f756e742844414929202c20626f72726f7761626c6528455448292c20746f74616c446562742845544829a2646970667358221220d0af5956cb5955751080e52e28a5471b4c5edeef1c46e60257910b9c13cdbc8064736f6c63430008000033a26469706673582212206f90781e9b7c6fcb5bb6d04a239ccc19abe07debe8f8d2b1768bd2fc0c75c6f264736f6c63430008000033",
  "linkReferences": {},
  "deployedLinkReferences": {}
}