{
  "_format": "hh-sol-artifact-1",
  "contractName": "LendingFactory",
  "sourceName": "contracts/LendingFactory.sol",
  "abi": [
    {
      "inputs": [
        {
          "internalType": "address",
          "name": "_lendingPoolAddressProvider",
          "type": "address"
        },
        {
          "internalType": "address",
          "name": "_dai",
          "type": "address"
        },
        {
          "internalType": "address",
          "name": "_weth",
          "type": "address"
        },
        {
          "internalType": "address",
          "name": "_uniswap",
          "type": "address"
        }
      ],
      "stateMutability": "nonpayable",
      "type": "constructor"
    },
    {
      "anonymous": false,
      "inputs": [
        {
          "indexed": true,
          "internalType": "address",
          "name": "previousOwner",
          "type": "address"
        },
        {
          "indexed": true,
          "internalType": "address",
          "name": "newOwner",
          "type": "address"
        }
      ],
      "name": "OwnershipTransferred",
      "type": "event"
    },
    {
      "anonymous": false,
      "inputs": [
        {
          "indexed": true,
          "internalType": "uint256",
          "name": "positionId",
          "type": "uint256"
        },
        {
          "indexed": false,
          "internalType": "address",
          "name": "positionAddress",
          "type": "address"
        },
        {
          "indexed": false,
          "internalType": "address",
          "name": "owner",
          "type": "address"
        }
      ],
      "name": "openPosition",
      "type": "event"
    },
    {
      "inputs": [],
      "name": "dai_address",
      "outputs": [
        {
          "internalType": "address",
          "name": "",
          "type": "address"
        }
      ],
      "stateMutability": "view",
      "type": "function"
    },
    {
      "inputs": [
        {
          "internalType": "uint256",
          "name": "positionId",
          "type": "uint256"
        }
      ],
      "name": "getAddressFromPositionId",
      "outputs": [
        {
          "internalType": "address",
          "name": "",
          "type": "address"
        }
      ],
      "stateMutability": "view",
      "type": "function"
    },
    {
      "inputs": [
        {
          "internalType": "uint256",
          "name": "positionId",
          "type": "uint256"
        }
      ],
      "name": "getPositionDataById",
      "outputs": [
        {
          "internalType": "uint256",
          "name": "",
          "type": "uint256"
        },
        {
          "internalType": "uint256",
          "name": "",
          "type": "uint256"
        },
        {
          "internalType": "uint256",
          "name": "",
          "type": "uint256"
        },
        {
          "internalType": "uint256",
          "name": "",
          "type": "uint256"
        },
        {
          "internalType": "uint256",
          "name": "",
          "type": "uint256"
        },
        {
          "internalType": "uint256",
          "name": "",
          "type": "uint256"
        }
      ],
      "stateMutability": "view",
      "type": "function"
    },
    {
      "inputs": [
        {
          "internalType": "uint256",
          "name": "positionId",
          "type": "uint256"
        }
      ],
      "name": "getPositionOwner",
      "outputs": [
        {
          "internalType": "address",
          "name": "",
          "type": "address"
        }
      ],
      "stateMutability": "view",
      "type": "function"
    },
    {
      "inputs": [
        {
          "internalType": "address",
          "name": "_user",
          "type": "address"
        }
      ],
      "name": "getUserOpenedPosition",
      "outputs": [
        {
          "internalType": "uint256[]",
          "name": "",
          "type": "uint256[]"
        }
      ],
      "stateMutability": "view",
      "type": "function"
    },
    {
      "inputs": [],
      "name": "lendingPoolAddressProvider",
      "outputs": [
        {
          "internalType": "address",
          "name": "",
          "type": "address"
        }
      ],
      "stateMutability": "view",
      "type": "function"
    },
    {
      "inputs": [
        {
          "internalType": "address",
          "name": "_tokenToBorrow",
          "type": "address"
        },
        {
          "internalType": "uint256",
          "name": "_interestRateMode",
          "type": "uint256"
        },
        {
          "internalType": "uint16",
          "name": "_referralCode",
          "type": "uint16"
        },
        {
          "internalType": "uint256",
          "name": "_leveragePercentage",
          "type": "uint256"
        }
      ],
      "name": "openPositionWithETH",
      "outputs": [],
      "stateMutability": "payable",
      "type": "function"
    },
    {
      "inputs": [],
      "name": "owner",
      "outputs": [
        {
          "internalType": "address",
          "name": "",
          "type": "address"
        }
      ],
      "stateMutability": "view",
      "type": "function"
    },
    {
      "inputs": [],
      "name": "renounceOwnership",
      "outputs": [],
      "stateMutability": "nonpayable",
      "type": "function"
    },
    {
      "inputs": [],
      "name": "totalPosition",
      "outputs": [
        {
          "internalType": "uint256",
          "name": "",
          "type": "uint256"
        }
      ],
      "stateMutability": "view",
      "type": "function"
    },
    {
      "inputs": [
        {
          "internalType": "address",
          "name": "newOwner",
          "type": "address"
        }
      ],
      "name": "transferOwnership",
      "outputs": [],
      "stateMutability": "nonpayable",
      "type": "function"
    },
    {
      "inputs": [],
      "name": "uniswap_address",
      "outputs": [
        {
          "internalType": "address",
          "name": "",
          "type": "address"
        }
      ],
      "stateMutability": "view",
      "type": "function"
    },
    {
      "inputs": [],
      "name": "wethToken",
      "outputs": [
        {
          "internalType": "contract IWETH",
          "name": "",
          "type": "address"
        }
      ],
      "stateMutability": "view",
      "type": "function"
    },
    {
      "inputs": [],
      "name": "weth_address",
      "outputs": [
        {
          "internalType": "address",
          "name": "",
          "type": "address"
        }
      ],
      "stateMutability": "view",
      "type": "function"
    }
  ],
  "bytecode": "0x6080604052600060045560506005553480156200001b57600080fd5b5060405162003905380380620039058339810160408190526200003e9162000116565b620000526200004c620000af565b620000b3565b600980546001600160a01b03199081166001600160a01b03968716179091556006805482169486169490941790935560078054841692851692831790556008805484169190941617909255600a80549091169091179055620001ac565b3390565b600080546001600160a01b038381166001600160a01b0319831681178455604051919092169283917f8be0079c531659141344cd1fd0a4f28419497f9722a3daafe3b4186f6b6457e09190a35050565b8051620001108162000192565b92915050565b600080600080608085870312156200012d57600080fd5b60006200013b878762000103565b94505060206200014e8782880162000103565b9350506040620001618782880162000103565b9250506060620001748782880162000103565b91505092959194509250565b60006001600160a01b03821662000110565b6200019d8162000180565b8114620001a957600080fd5b50565b61374980620001bc6000396000f3fe608060405260043610620000f25760003560e01c806363380300116200008b5780638da5cb5b11620000615780638da5cb5b1462000247578063d6200614146200025f578063e3fbd2471462000298578063f2fde38b14620002bd57620000f2565b80636338030014620001f2578063715018a6146200020a57806384e25ce5146200022257620000f2565b80632816e60f11620000cd5780632816e60f14620001825780634905e59f146200019a5780634b57b0be14620001b25780635f9fa24114620001d957620000f2565b80631348a8e314620000f757806317fbe3541462000134578063246126bd146200015b575b600080fd5b3480156200010457600080fd5b506200011c6200011636600462000985565b620002e2565b6040516200012b919062000cf2565b60405180910390f35b3480156200014157600080fd5b506200014c62000350565b6040516200012b919062000d5e565b3480156200016857600080fd5b506200017362000356565b6040516200012b919062000cbc565b3480156200018f57600080fd5b506200017362000365565b348015620001a757600080fd5b506200017362000374565b348015620001bf57600080fd5b50620001ca62000383565b6040516200012b919062000d05565b620001f0620001ea366004620009cf565b62000392565b005b348015620001ff57600080fd5b506200017362000639565b3480156200021757600080fd5b50620001f062000648565b3480156200022f57600080fd5b50620001736200024136600462000a39565b6200069c565b3480156200025457600080fd5b5062000173620006b7565b3480156200026c57600080fd5b50620002846200027e36600462000a39565b620006c6565b6040516200012b9695949392919062000de4565b348015620002a557600080fd5b5062000173620002b736600462000a39565b6200076e565b348015620002ca57600080fd5b50620001f0620002dc36600462000985565b620007fd565b6001600160a01b0381166000908152600260209081526040918290208054835181840281018401909452808452606093928301828280156200034457602002820191906000526020600020905b8154815260200190600101908083116200032f575b50505050509050919050565b60045481565b6007546001600160a01b031681565b6008546001600160a01b031681565b6006546001600160a01b031681565b600a546001600160a01b031681565b600554811115620003c05760405162461bcd60e51b8152600401620003b79062000d3a565b60405180910390fd5b620004006040518060400160405280601c81526020017f6265666f7265206372656174696e67206e657720706f736974696f6e000000008152506200087a565b60003460045486868686600960009054906101000a90046001600160a01b0316600760009054906101000a90046001600160a01b0316604051620004449062000936565b62000456979695949392919062000d6e565b6040518091039082f090508015801562000474573d6000803e3d6000fd5b509050806001600160a01b03166330be307a6040518163ffffffff1660e01b8152600401602060405180830381600087803b158015620004b357600080fd5b505af1158015620004c8573d6000803e3d6000fd5b505050506040513d601f19601f82011682018060405250810190620004ee919062000a5a565b5060405163f2fde38b60e01b81526001600160a01b0382169063f2fde38b906200051d90339060040162000cbc565b600060405180830381600087803b1580156200053857600080fd5b505af11580156200054d573d6000803e3d6000fd5b505060048054600090815260016020818152604080842080546001600160a01b038a166001600160a01b03199182168117909255338087526002855283872088548154808901835591895295882001949094556003805495860181559095527fc2575a0e9e593c00f959f8c92f12db2869c3395a3b0502d05e2516446f71f85b9093018054909416909217909255915491519193507f8ba97c49cd21462542e1fb094e9ce06444cc9051ff1253b7f63c9b2434ff20979250620006139185919062000ccc565b60405180910390a2600480549060006200062d8362000ec0565b91905055505050505050565b6009546001600160a01b031681565b62000652620008c1565b6001600160a01b031662000665620006b7565b6001600160a01b0316146200068e5760405162461bcd60e51b8152600401620003b79062000d4c565b6200069a6000620008c5565b565b6000908152600160205260409020546001600160a01b031690565b6000546001600160a01b031690565b60008181526001602052604080822054815163e8f3796360e01b81529151839283928392839283926001600160a01b03169163e8f379639160048082019260c092909190829003018186803b1580156200071f57600080fd5b505afa15801562000734573d6000803e3d6000fd5b505050506040513d601f19601f820116820180604052508101906200075a919062000a7b565b949c939b5091995097509550909350915050565b6000818152600160209081526040808320548151638da5cb5b60e01b815291516001600160a01b0390911692638da5cb5b9260048082019391829003018186803b158015620007bc57600080fd5b505afa158015620007d1573d6000803e3d6000fd5b505050506040513d601f19601f82011682018060405250810190620007f79190620009ae565b92915050565b62000807620008c1565b6001600160a01b03166200081a620006b7565b6001600160a01b031614620008435760405162461bcd60e51b8152600401620003b79062000d4c565b6001600160a01b0381166200086c5760405162461bcd60e51b8152600401620003b79062000d28565b6200087781620008c5565b50565b620008778160405160240162000891919062000d15565b60408051601f198184030181529190526020810180516001600160e01b031663104c13eb60e21b17905262000915565b3390565b600080546001600160a01b038381166001600160a01b0319831681178455604051919092169283917f8be0079c531659141344cd1fd0a4f28419497f9722a3daafe3b4186f6b6457e09190a35050565b80516a636f6e736f6c652e6c6f67602083016000808483855afa5050505050565b6127db8062000f3983390190565b8035620007f78162000f0b565b8051620007f78162000f0b565b8035620007f78162000f22565b8035620007f78162000f2d565b8051620007f78162000f2d565b6000602082840312156200099857600080fd5b6000620009a6848462000944565b949350505050565b600060208284031215620009c157600080fd5b6000620009a6848462000951565b60008060008060808587031215620009e657600080fd5b6000620009f4878762000944565b945050602062000a07878288016200096b565b935050604062000a1a878288016200095e565b925050606062000a2d878288016200096b565b91505092959194509250565b60006020828403121562000a4c57600080fd5b6000620009a684846200096b565b60006020828403121562000a6d57600080fd5b6000620009a6848462000978565b60008060008060008060c0878903121562000a9557600080fd5b600062000aa3898962000978565b965050602062000ab689828a0162000978565b955050604062000ac989828a0162000978565b945050606062000adc89828a0162000978565b935050608062000aef89828a0162000978565b92505060a062000b0289828a0162000978565b9150509295509295509295565b600062000b1d838362000cb1565b505060200190565b62000b308162000e5d565b82525050565b600062000b438262000e50565b62000b4f818562000e54565b935062000b5c8362000e4a565b8060005b8381101562000b9057815162000b77888262000b0f565b975062000b848362000e4a565b92505060010162000b60565b509495945050505050565b62000b308162000e80565b600062000bb38262000e50565b62000bbf818562000e54565b935062000bd181856020860162000e8d565b62000bdc8162000f01565b9093019392505050565b600062000bf560268362000e54565b7f4f776e61626c653a206e6577206f776e657220697320746865207a65726f206181526564647265737360d01b602082015260400192915050565b600062000c3f601a8362000e54565b7f6c74762065786365656420616363657074656420616d6f756e74000000000000815260200192915050565b600062000c7a60208362000e54565b7f4f776e61626c653a2063616c6c6572206973206e6f7420746865206f776e6572815260200192915050565b62000b308162000e6a565b62000b308162000e7d565b60208101620007f7828462000b25565b6040810162000cdc828562000b25565b62000ceb602083018462000b25565b9392505050565b6020808252810162000ceb818462000b36565b60208101620007f7828462000b9b565b6020808252810162000ceb818462000ba6565b60208082528101620007f78162000be6565b60208082528101620007f78162000c30565b60208082528101620007f78162000c6b565b60208101620007f7828462000cb1565b60e0810162000d7e828a62000cb1565b62000d8d602083018962000b25565b62000d9c604083018862000cb1565b62000dab606083018762000ca6565b62000dba608083018662000cb1565b62000dc960a083018562000b25565b62000dd860c083018462000b25565b98975050505050505050565b60c0810162000df4828962000cb1565b62000e03602083018862000cb1565b62000e12604083018762000cb1565b62000e21606083018662000cb1565b62000e30608083018562000cb1565b62000e3f60a083018462000cb1565b979650505050505050565b60200190565b5190565b90815260200190565b6000620007f78262000e71565b61ffff1690565b6001600160a01b031690565b90565b6000620007f78262000e5d565b60005b8381101562000eaa57818101518382015260200162000e90565b8381111562000eba576000848401525b50505050565b600062000ecd8262000e7d565b915060001982141562000ee45762000ee462000eeb565b5060010190565b634e487b7160e01b600052601160045260246000fd5b601f01601f191690565b62000f168162000e5d565b81146200087757600080fd5b62000f168162000e6a565b62000f168162000e7d56fe608060408190526000805460ff60a01b19169055620027db3881900390819083398101604081905262000032916200032e565b620000466200004062000284565b62000288565b346002556001879055600580546001600160a01b03199081166001600160a01b038981169190911790925560068790556007805461ffff191661ffff88161790556008859055600c8054909116848316179081905560408051630261bf8b60e01b815290519190921691630261bf8b916004808301926020929190829003018186803b158015620000d657600080fd5b505afa158015620000eb573d6000803e3d6000fd5b505050506040513d601f19601f8201168201806040525081019062000111919062000305565b600a80546001600160a01b0319166001600160a01b03928316179055600c5460408051631f94a27560e31b81529051919092169163fca513a8916004808301926020929190829003018186803b1580156200016b57600080fd5b505afa15801562000180573d6000803e3d6000fd5b505050506040513d601f19601f82011682018060405250810190620001a6919062000305565b600b80546001600160a01b039283166001600160a01b031991821617909155600e805490911633179081905560408051632816e60f60e01b815290519190921691632816e60f916004808301926020929190829003018186803b1580156200020d57600080fd5b505afa15801562000222573d6000803e3d6000fd5b505050506040513d601f19601f8201168201806040525081019062000248919062000305565b600d80546001600160a01b039283166001600160a01b03199182161790915560098054939092169216919091179055506200042c945050505050565b3390565b600080546001600160a01b038381166001600160a01b0319831681178455604051919092169283917f8be0079c531659141344cd1fd0a4f28419497f9722a3daafe3b4186f6b6457e09190a35050565b8051620002e581620003fc565b92915050565b8051620002e58162000416565b8051620002e58162000421565b6000602082840312156200031857600080fd5b6000620003268484620002d8565b949350505050565b600080600080600080600060e0888a0312156200034a57600080fd5b6000620003588a8a620002f8565b97505060206200036b8a828b01620002d8565b96505060406200037e8a828b01620002f8565b9550506060620003918a828b01620002eb565b9450506080620003a48a828b01620002f8565b93505060a0620003b78a828b01620002d8565b92505060c0620003ca8a828b01620002d8565b91505092959891949750929550565b6000620002e582620003ed565b61ffff1690565b6001600160a01b031690565b90565b6200040781620003d9565b81146200041357600080fd5b50565b6200040781620003e6565b6200040781620003f9565b61239f806200043c6000396000f3fe60806040526004361061014b5760003560e01c8063aa8c217c116100b6578063f10684541161006f578063f106845414610316578063f2fde38b1461032b578063f38955f11461034b578063f5681d8f14610360578063fdca48f814610375578063ff3be7961461038a5761014b565b8063aa8c217c14610286578063b7dd32aa1461029b578063d5812ae1146102b0578063d7376e3e146102c5578063d8b6d252146102cd578063e8f37963146102ef5761014b565b8063633803001161010857806363380300146101ee578063692aa97e14610203578063715018a614610225578063735de9f71461023a5780638da5cb5b1461024f578063a59a9973146102715761014b565b80631f304df01461014d5780632630c12f1461017857806330be307a1461019a578063402b0888146101af578063418f35cc146101c45780634b57b0be146101d9575b005b34801561015957600080fd5b5061016261039f565b60405161016f9190612090565b60405180910390f35b34801561018457600080fd5b5061018d6103a5565b60405161016f9190611f4d565b3480156101a657600080fd5b506101626103b4565b3480156101bb57600080fd5b50610162610c01565b3480156101d057600080fd5b50610162610c18565b3480156101e557600080fd5b5061018d610cbd565b3480156101fa57600080fd5b5061018d610ccc565b34801561020f57600080fd5b50610218610cdb565b60405161016f9190611f3f565b34801561023157600080fd5b5061014b610ceb565b34801561024657600080fd5b5061018d610d36565b34801561025b57600080fd5b50610264610d45565b60405161016f9190611e0d565b34801561027d57600080fd5b5061018d610d54565b34801561029257600080fd5b50610162610d63565b3480156102a757600080fd5b50610162610d69565b3480156102bc57600080fd5b50610162610d6f565b61014b610d75565b3480156102d957600080fd5b506102e26113a8565b60405161016f9190612082565b3480156102fb57600080fd5b506103046113b2565b60405161016f969594939291906120e7565b34801561032257600080fd5b50610162611452565b34801561033757600080fd5b5061014b610346366004611aec565b611458565b34801561035757600080fd5b506102646114c9565b34801561036c57600080fd5b506101626114d8565b34801561038157600080fd5b50610162611519565b34801561039657600080fd5b5061021861151f565b60065481565b600b546001600160a01b031681565b60006103be61153b565b6001600160a01b03166103cf610d45565b6001600160a01b0316146103fe5760405162461bcd60e51b81526004016103f590612072565b60405180910390fd5b600054600160a01b900460ff16156104285760405162461bcd60e51b81526004016103f590612042565b6009546001600160a01b031663d0e30db0606461044647605f6121fa565b61045091906121d0565b6040518263ffffffff1660e01b81526004016000604051808303818588803b15801561047b57600080fd5b505af115801561048f573d6000803e3d6000fd5b5050600954600a5460405163095ea7b360e01b81526001600160a01b03928316955063095ea7b394506104cc935091169060001990600401611e1b565b602060405180830381600087803b1580156104e657600080fd5b505af11580156104fa573d6000803e3d6000fd5b505050506040513d601f19601f8201168201806040525081019061051e9190611b5d565b50600b5460055460405163b3596f0760e01b81526000926001600160a01b039081169263b3596f07926105579290911690600401611e0d565b60206040518083038186803b15801561056f57600080fd5b505afa158015610583573d6000803e3d6000fd5b505050506040513d601f19601f820116820180604052508101906105a79190611b7b565b600a546009546002549293506001600160a01b039182169263e8eda9df92909116906064906105d790605f6121fa565b6105e191906121d0565b6007546040516001600160e01b031960e086901b16815261060f939291309161ffff90911690600401611e80565b600060405180830381600087803b15801561062957600080fd5b505af115801561063d573d6000803e3d6000fd5b50505050600061064b6113b2565b5050509250505081606461065f91906121fa565b6008546064600254605f61067391906121fa565b61067d91906121d0565b61068f90670de0b6b3a76400006121fa565b61069991906121fa565b6106a391906121d0565b6003819055600a5460055460065460075460405163a415bcad60e01b81526001600160a01b039485169563a415bcad956106ee9516939092909161ffff909116903090600401611ef3565b600060405180830381600087803b15801561070857600080fd5b505af115801561071c573d6000803e3d6000fd5b5050505060008061072b6113b2565b505050925092505061075960405180606001604052806033815260200161233760339139600354838561153f565b604080518082018252601581527408882924058ae8aa89040c4c2d8c2dcc6ca588aa89605b1b602082015260055491516370a0823160e01b815261088b926001600160a01b0316906370a08231906107b5903090600401611e0d565b60206040518083038186803b1580156107cd57600080fd5b505afa1580156107e1573d6000803e3d6000fd5b505050506040513d601f19601f820116820180604052508101906108059190611b7b565b6009546040516370a0823160e01b81526001600160a01b03909116906370a0823190610835903090600401611e0d565b60206040518083038186803b15801561084d57600080fd5b505afa158015610861573d6000803e3d6000fd5b505050506040513d601f19601f820116820180604052508101906108859190611b7b565b4761153f565b600554600d546040516370a0823160e01b81526001600160a01b039283169263095ea7b392169083906370a08231906108c8903090600401611e0d565b60206040518083038186803b1580156108e057600080fd5b505afa1580156108f4573d6000803e3d6000fd5b505050506040513d601f19601f820116820180604052508101906109189190611b7b565b6040518363ffffffff1660e01b8152600401610935929190611e3d565b602060405180830381600087803b15801561094f57600080fd5b505af1158015610963573d6000803e3d6000fd5b505050506040513d601f19601f820116820180604052508101906109879190611b5d565b50604080516002808252606082018352600092602083019080368337505060055482519293506001600160a01b0316918391506000906109d757634e487b7160e01b600052603260045260246000fd5b6001600160a01b03928316602091820292909201810191909152600d54604080516315ab88c960e31b81529051919093169263ad5c4648926004808301939192829003018186803b158015610a2b57600080fd5b505afa158015610a3f573d6000803e3d6000fd5b505050506040513d601f19601f82011682018060405250810190610a639190611b0a565b81600181518110610a8457634e487b7160e01b600052603260045260246000fd5b6001600160a01b039283166020918202929092010152600d546005546040516370a0823160e01b81529183169263791ac947929116906370a0823190610ace903090600401611e0d565b60206040518083038186803b158015610ae657600080fd5b505afa158015610afa573d6000803e3d6000fd5b505050506040513d601f19601f82011682018060405250810190610b1e9190611b7b565b60008430610b2d42603c6121a2565b6040518663ffffffff1660e01b8152600401610b4d95949392919061209e565b600060405180830381600087803b158015610b6757600080fd5b505af1158015610b7b573d6000803e3d6000fd5b5050604080518082018252601581527408882924058ae8aa89040c4c2d8c2dcc6ca588aa89605b1b602082015260055491516370a0823160e01b8152610bdf94509092506001600160a01b03909116906370a08231906107b5903090600401611e0d565b50505060049190915550506000805460ff60a01b1916600160a01b1790554790565b600080610c0c6113b2565b50929550505050505090565b600080610c236113b2565b50506009546040516370a0823160e01b815294955085946001600160a01b0390911693506370a082319250610c5d91503090600401611e0d565b60206040518083038186803b158015610c7557600080fd5b505afa158015610c89573d6000803e3d6000fd5b505050506040513d601f19601f82011682018060405250810190610cad9190611b7b565b610cb791906121a2565b91505090565b6009546001600160a01b031681565b600c546001600160a01b031681565b600054600160a01b900460ff1681565b610cf361153b565b6001600160a01b0316610d04610d45565b6001600160a01b031614610d2a5760405162461bcd60e51b81526004016103f590612072565b610d34600061158e565b565b600d546001600160a01b031681565b6000546001600160a01b031690565b600a546001600160a01b031681565b60025481565b60035481565b60045481565b610d7d61153b565b6001600160a01b0316610d8e610d45565b6001600160a01b031614610db45760405162461bcd60e51b81526004016103f590612072565b610dbc61151f565b15610dd95760405162461bcd60e51b81526004016103f590612062565b600054600160a01b900460ff16610e025760405162461bcd60e51b81526004016103f590612052565b6000610e0c6113b2565b50505050915050610e4f6040518060400160405280600e81526020016d03932b8bab4b93290313637b1b5960951b815250823447610e4a91906121a2565b6115de565b604080518082018252600c8082526b1c995c185e57d85b5bdd5b9d60a21b602080840191909152835180850185529182526b574554482062616c616e636560a01b9082015260095492516370a0823160e01b8152610f1f938592916001600160a01b03909116906370a0823190610eca903090600401611e0d565b60206040518083038186803b158015610ee257600080fd5b505afa158015610ef6573d6000803e3d6000fd5b505050506040513d601f19601f82011682018060405250810190610f1a9190611b7b565b61162a565b600b5460055460405163b3596f0760e01b81526000926001600160a01b039081169263b3596f0792610f579290911690600401611e0d565b60206040518083038186803b158015610f6f57600080fd5b505afa158015610f83573d6000803e3d6000fd5b505050506040513d601f19601f82011682018060405250810190610fa79190611b7b565b60408051600280825260608201835292935060009290916020830190803683375050600d54604080516315ab88c960e31b815290519394506001600160a01b039091169263ad5c464892506004808301926020929190829003018186803b15801561101157600080fd5b505afa158015611025573d6000803e3d6000fd5b505050506040513d601f19601f820116820180604052508101906110499190611b0a565b8160008151811061106a57634e487b7160e01b600052603260045260246000fd5b6001600160a01b0392831660209182029290920101526005548251911690829060019081106110a957634e487b7160e01b600052603260045260246000fd5b6001600160a01b039283166020918202929092010152600d541663b6f9de9547600084306110d842603c6121a2565b6040518663ffffffff1660e01b81526004016110f79493929190611f5b565b6000604051808303818588803b15801561111057600080fd5b505af1158015611124573d6000803e3d6000fd5b5050600554600a5460405163095ea7b360e01b81526001600160a01b03928316955063095ea7b39450611161935091169060001990600401611e3d565b602060405180830381600087803b15801561117b57600080fd5b505af115801561118f573d6000803e3d6000fd5b505050506040513d601f19601f820116820180604052508101906111b39190611b5d565b50600a5460055460065460405163573ade8160e01b81526000936001600160a01b039081169363573ade81936111f6939190921691600019913090600401611ebe565b602060405180830381600087803b15801561121057600080fd5b505af1158015611224573d6000803e3d6000fd5b505050506040513d601f19601f820116820180604052508101906112489190611b7b565b905060008060008060008061125b6113b2565b600a54600954604051631a4ca37b60e21b8152979d50959b50939950919750955093506000926001600160a01b03918216926369328dec926112a892911690600019903090600401611e58565b602060405180830381600087803b1580156112c257600080fd5b505af11580156112d6573d6000803e3d6000fd5b505050506040513d601f19601f820116820180604052508101906112fa9190611b7b565b600554909150611312906001600160a01b0316611673565b61131a61191a565b60405133904780156108fc02916000818181858888f19350505050158015611346573d6000803e3d6000fd5b506000805460ff60a01b191681556003819055600455307fbf42841c562a1070b3c3b029a8572bc51cb9b845a77514998ca585238d64a1e4611386610d45565b6040516113939190611e0d565b60405180910390a25050505050505050505050565b60075461ffff1681565b600a54604051632fe4a15f60e21b8152600091829182918291829182916001600160a01b039091169063bf92857c906113ef903090600401611e0d565b60c06040518083038186803b15801561140757600080fd5b505afa15801561141b573d6000803e3d6000fd5b505050506040513d601f19601f8201168201806040525081019061143f9190611b99565b949b939a50919850965094509092509050565b60015481565b61146061153b565b6001600160a01b0316611471610d45565b6001600160a01b0316146114975760405162461bcd60e51b81526004016103f590612072565b6001600160a01b0381166114bd5760405162461bcd60e51b81526004016103f590612032565b6114c68161158e565b50565b6005546001600160a01b031681565b60006127106008546002546114ed91906121fa565b6114f890605f6121fa565b61150291906121d0565b61150a610c01565b611514919061222f565b905090565b60085481565b6000806003541180156115145750611535610c01565b15905090565b3390565b611588848484846040516024016115599493929190612005565b60408051601f198184030181529190526020810180516001600160e01b03166304772b3360e11b179052611a08565b50505050565b600080546001600160a01b038381166001600160a01b0319831681178455604051919092169283917f8be0079c531659141344cd1fd0a4f28419497f9722a3daafe3b4186f6b6457e09190a35050565b6116258383836040516024016115f693929190611fd8565b60408051601f198184030181529190526020810180516001600160e01b031663969cdd0360e01b179052611a08565b505050565b611588848484846040516024016116449493929190611f97565b60408051601f198184030181529190526020810180516001600160e01b031663a0c4b22560e01b179052611a08565b6040516370a0823160e01b81526000906001600160a01b038316906370a08231906116a2903090600401611e0d565b60206040518083038186803b1580156116ba57600080fd5b505afa1580156116ce573d6000803e3d6000fd5b505050506040513d601f19601f820116820180604052508101906116f29190611b7b565b9050801561191657600d5460405163095ea7b360e01b81526001600160a01b038481169263095ea7b39261172e92909116908590600401611e3d565b602060405180830381600087803b15801561174857600080fd5b505af115801561175c573d6000803e3d6000fd5b505050506040513d601f19601f820116820180604052508101906117809190611b5d565b5060408051600280825260608201835260009260208301908036833701905050905082816000815181106117c457634e487b7160e01b600052603260045260246000fd5b6001600160a01b03928316602091820292909201810191909152600d54604080516315ab88c960e31b81529051919093169263ad5c4648926004808301939192829003018186803b15801561181857600080fd5b505afa15801561182c573d6000803e3d6000fd5b505050506040513d601f19601f820116820180604052508101906118509190611b0a565b8160018151811061187157634e487b7160e01b600052603260045260246000fd5b6001600160a01b039283166020918202929092010152600d54166318cbafe583600084306118a042603c6121a2565b6040518663ffffffff1660e01b81526004016118c095949392919061209e565b600060405180830381600087803b1580156118da57600080fd5b505af11580156118ee573d6000803e3d6000fd5b505050506040513d6000823e601f3d908101601f191682016040526115889190810190611b28565b5050565b6009546040516370a0823160e01b81526000916001600160a01b0316906370a082319061194b903090600401611e0d565b60206040518083038186803b15801561196357600080fd5b505afa158015611977573d6000803e3d6000fd5b505050506040513d601f19601f8201168201806040525081019061199b9190611b7b565b905080156114c657600954604051632e1a7d4d60e01b81526001600160a01b0390911690632e1a7d4d906119d3908490600401612090565b600060405180830381600087803b1580156119ed57600080fd5b505af1158015611a01573d6000803e3d6000fd5b5050505050565b80516a636f6e736f6c652e6c6f67602083016000808483855afa5050505050565b6000611a3c611a378461216b565b612141565b90508083825260208201905082856020860282011115611a5b57600080fd5b60005b85811015611a875781611a718882611ae1565b8452506020928301929190910190600101611a5e565b5050509392505050565b8035611a9c81612310565b92915050565b8051611a9c81612310565b600082601f830112611abe57600080fd5b8151611ace848260208601611a29565b949350505050565b8051611a9c81612324565b8051611a9c8161232d565b600060208284031215611afe57600080fd5b6000611ace8484611a91565b600060208284031215611b1c57600080fd5b6000611ace8484611aa2565b600060208284031215611b3a57600080fd5b815167ffffffffffffffff811115611b5157600080fd5b611ace84828501611aad565b600060208284031215611b6f57600080fd5b6000611ace8484611ad6565b600060208284031215611b8d57600080fd5b6000611ace8484611ae1565b60008060008060008060c08789031215611bb257600080fd5b6000611bbe8989611ae1565b9650506020611bcf89828a01611ae1565b9550506040611be089828a01611ae1565b9450506060611bf189828a01611ae1565b9350506080611c0289828a01611ae1565b92505060a0611c1389828a01611ae1565b9150509295509295509295565b6000611c2c8383611c34565b505060200190565b611c3d8161225c565b82525050565b6000611c4e82612195565b611c588185612199565b9350611c638361218f565b8060005b83811015611c91578151611c7b8882611c20565b9750611c868361218f565b925050600101611c67565b509495945050505050565b611c3d81612267565b611c3d81612282565b611c3d8161228d565b6000611cc282612195565b611ccc8185612199565b9350611cdc818560208601612298565b611ce581612306565b9093019392505050565b6000611cfc602683612199565b7f4f776e61626c653a206e6577206f776e657220697320746865207a65726f206181526564647265737360d01b602082015260400192915050565b6000611d44601583612199565b7430b63932b0b23c9037b832b7103837b9b4ba34b7b760591b815260200192915050565b6000611d75600f83612199565b6e1c1bdcda5d1a5bdb8818db1bdcd959608a1b815260200192915050565b6000611da0601383612199565b721c1bdcda5d1a5bdb881b1a5c5d5a59185d1959606a1b815260200192915050565b6000611dcf602083612199565b7f4f776e61626c653a2063616c6c6572206973206e6f7420746865206f776e6572815260200192915050565b611c3d8161226c565b611c3d8161227f565b60208101611a9c8284611c34565b60408101611e298285611c34565b611e366020830184611cae565b9392505050565b60408101611e4b8285611c34565b611e366020830184611e04565b60608101611e668286611c34565b611e736020830185611e04565b611ace6040830184611c34565b60808101611e8e8287611c34565b611e9b6020830186611e04565b611ea86040830185611c34565b611eb56060830184611dfb565b95945050505050565b60808101611ecc8287611c34565b611ed96020830186611e04565b611ee66040830185611e04565b611eb56060830184611c34565b60a08101611f018288611c34565b611f0e6020830187611e04565b611f1b6040830186611e04565b611f286060830185611dfb565b611f356080830184611c34565b9695505050505050565b60208101611a9c8284611c9c565b60208101611a9c8284611ca5565b60808101611f698287611cae565b8181036020830152611f7b8186611c43565b9050611f8a6040830185611c34565b611eb56060830184611e04565b60808082528101611fa88187611cb7565b9050611fb76020830186611e04565b8181036040830152611fc98185611cb7565b9050611eb56060830184611e04565b60608082528101611fe98186611cb7565b9050611ff86020830185611e04565b611ace6040830184611e04565b608080825281016120168187611cb7565b90506120256020830186611e04565b611f8a6040830185611e04565b60208082528101611a9c81611cef565b60208082528101611a9c81611d37565b60208082528101611a9c81611d68565b60208082528101611a9c81611d93565b60208082528101611a9c81611dc2565b60208101611a9c8284611dfb565b60208101611a9c8284611e04565b60a081016120ac8288611e04565b6120b96020830187611cae565b81810360408301526120cb8186611c43565b90506120da6060830185611c34565b611f356080830184611e04565b60c081016120f58289611e04565b6121026020830188611e04565b61210f6040830187611e04565b61211c6060830186611e04565b6121296080830185611e04565b61213660a0830184611e04565b979650505050505050565b60405181810167ffffffffffffffff81118282101715612163576121636122f0565b604052919050565b600067ffffffffffffffff821115612185576121856122f0565b5060209081020190565b60200190565b5190565b90815260200190565b60006121ad8261227f565b91506121b88361227f565b925082198211156121cb576121cb6122c4565b500190565b60006121db8261227f565b91506121e68361227f565b9250826121f5576121f56122da565b500490565b60006122058261227f565b91506122108361227f565b925081600019048311821515161561222a5761222a6122c4565b500290565b600061223a8261227f565b91506122458361227f565b925082821015612257576122576122c4565b500390565b6000611a9c82612273565b151590565b61ffff1690565b6001600160a01b031690565b90565b6000611a9c8261225c565b6000611a9c8261227f565b60005b838110156122b357818101518382015260200161229b565b838111156115885750506000910152565b634e487b7160e01b600052601160045260246000fd5b634e487b7160e01b600052601260045260246000fd5b634e487b7160e01b600052604160045260246000fd5b601f01601f191690565b6123198161225c565b81146114c657600080fd5b61231981612267565b6123198161227f56fe626f72726f77616d6f756e742844414929202c20626f72726f7761626c6528455448292c20746f74616c446562742845544829a2646970667358221220058d1ed96972d6803a74224b70cd3819dc42c379295ce0c28c1b2682276eea8c64736f6c63430008000033a26469706673582212203fdc72e7f6b8d450da9f27be97f513cddb613ade3f1d1e506c7559187cab5e3364736f6c63430008000033",
  "linkReferences": {},
  "deployedLinkReferences": {}
}